:100000000C94F60C0C94270D0C94270D0C94270DD2
:100010000C94270D0C94270D0C94270D0C94270D90
:100020000C94270D0C94270D0C94270D0C94270D80
:100030000C94270D0C94270D0C94270D0C94270D70
:100040000C94270D0C94270D0C94270D0C94270D60
:100050000C94270D0C94270D0C94270D0C946346DB
:100060000C94270D0C9491410C9465420C94270D2F
:100070000C94270D0C94270D0C94270D0C94270D30
:100080000C94270D0C94270D0C94270D0C94270D20
:100090000C94BE410C94B0420C94270D0C94270D87
:1000A0000C94270D0C94270D0C94270D0C94270D00
:1000B0000C94270D0C94270D0C94270D0C94270DF0
:1000C0000C94270D0C94270D0C94270D0C94EB41E8
:1000D0000C94FB420C94270D0C9418420C9446434C
:1000E0000C94270D48656172744265617452756E97
:1000F0006E61626C65007365744C65644F6E00736D
:10010000657474696E67206C65642066726F6D201B
:10011000257520746F2025750073657442757A7A91
:1001200065724F6E0073657474696E672062757ACC
:100130007A65722066726F6D20257520746F202598
:10014000750072756E0069734C65644F6E203D20BA
:1001500025752C20697342757A7A65724F6E203D41
:10016000202575005253323332546F576946695413
:1001700061736B0072756E0052533233323C2D3E08
:100180005769466920636F6E6E656374696F6E2090
:1001900077696C6C20626520616C736F2070726F80
:1001A00063657373656420696E2074686520667585
:1001B0007475726500616C6C206F70657261746932
:1001C0006F6E732066696E6973686564206F6E2058
:1001D00052533233323C2D3E5769466900526573A3
:1001E00065745265737453657276696365007365EF
:1001F00074426F6F6C65616E56616C756500524537
:1002000053455454494E47204445564943452100DF
:100210007365747570003D3D3D3D3D3D3D3D3D3D4B
:100220003D3D3D0053544152542028637572726520
:100230006E74206465627567206C6576656C203D20
:100240002025752900656E746572696E6720757367
:100250006572536574757028292E2E2E006C6561A9
:1002600076696E6720757365725365747570282999
:100270002E2E2E006164645461736B546F5461734D
:100280006B4D616E6167657200616464696E6720C1
:100290007461736B202725732720746F207461733A
:1002A0006B4D616E616765722C207461736B207099
:1002B00074722A203D202575006164645461736B5B
:1002C000546F5461736B4D616E6167657228293A92
:1002D000636F756C64206E6F742061646420746158
:1002E0006B732121207074722A3D2575007072692C
:1002F0006E745265706F7274002D2D2D2D2D2D2D65
:100300002D2D2D2D2D2D006672656552616D4D656B
:100310006D6F72792829203D20256920422C207597
:100320007365642052414D203D2025692042006DB7
:10033000696C6C69732829203D202575002D2D2DB1
:100340002D2D2D2D2D2D2D2D2D2D006861726452FA
:1003500065736574006861726452657365742829F9
:100360003A20484152442052455345542E2E2E00E7
:10037000536174656C697461310073616D706C6593
:10038000207461736B203A2900416E79427566666C
:10039000657200416E7952696E6742756666657274
:1003A0000053747265616D48464131317852533261
:1003B0003332576946693300726561640072657350
:1003C000756C74203D202563202825752900636FF6
:1003D000756C64206E6F7420726561642C20726588
:1003E0007475726E696E6720300076616C69646145
:1003F00074655265636F7264734C697374007265DF
:100400006164506F736974696F6E202825752920A7
:100410003D3D207772697465506F736974696F6EC2
:1004200020282575292C2073657474696E672062F5
:100430006F746820746F20300072656164506F7350
:100440006974696F6E2028257529203E3D207369E7
:100450007A654F6653696E676C6541727261792087
:10046000282575292C206D6F76652D666972737449
:100470002D7265636F72642D746F2D656E640070EC
:1004800065656B00726573756C74203D2025632073
:100490002825752900636F756C64206E6F74207059
:1004A00065656B2C2072657475726E696E6720309D
:1004B0000064697363617264416E7957616974693C
:1004C0006E6744617461496E556E6465726C7969DA
:1004D0006E6753747265616D00696E697469616CF1
:1004E0006C7920646973636172646564202575208A
:1004F000627974657300666F722073657269616CEE
:10050000206E756D62657220257520646973636164
:100510007264656420257520627974657300646F68
:1005200046756C6C526561644379636C65007365F4
:100530006E64696E67205245435620616761696E3B
:100540002C207265747279202575202F2025750066
:1005500073656E6452454356416E645265616452E0
:1005600045435641434B00613120617661696C61BE
:10057000626C653D2575202C20667265655370613F
:1005800063653D25752C20736E3D25750061322015
:10059000617661696C61626C653D257500636F759C
:1005A0006C64206E6F742073656E642036206279EF
:1005B000746573206F66205245435620636F6D6DDE
:1005C000616E6400613320617661696C61626C65A3
:1005D0003D257500636F756C64206E6F74207365C4
:1005E0006E642063726300613520617661696C61BD
:1005F000626C653D257500696E636F6D6D696E6730
:1006000020636F6D6D616E64206E756D6265722022
:1006100028257529206E6F74206D617463682032FF
:1006200000696E636F6D6D696E67207365726961D5
:100630006C206E756D6265722028257529206E6F9D
:1006400074206D6174636820257500696E636F6D39
:100650006D696E6720666972737420726573657266
:1006600076656420627974652028257529206E6F6F
:1006700074206D61746368203000696E636F6D6D06
:10068000696E67207365636F6E642072657365724F
:1006900076656420627974652028257529206E6F3F
:1006A00074206D61746368203000696E636F6D6DD6
:1006B000696E6720646174612073697A65202825FA
:1006C000752920697320677265617465722074688A
:1006D000616E20726571756573746564202575009F
:1006E000726571756573746564202575206279740F
:1006F000657320616E642072656365697665642048
:100700002575206279746573007374617274207248
:10071000656164696E6720626563617573652063F6
:10072000726353747265616D2D3E617661696C61AF
:10073000626C652829203D20257500746F52656123
:1007400064203D2025752C206279746573526561A3
:100750006446726F6D53747265616D416E64577259
:100760006F7465546F427566666572203D2025750D
:100770002C20726561644279746573436F756E7481
:10078000203D202575202C20696E636F6D6D696E8C
:10079000674461746153697A65203D20257500774F
:1007A000616974696E6720666F7220617661696C39
:1007B00061626C652064617461207768696C652092
:1007C00072656164696E672C207265616442797438
:1007D0006573436F756E74203D202575202C20694C
:1007E0006E636F6D6D696E674461746153697A659C
:1007F000203D2025750061313020617661696C6192
:10080000626C653D2575006765745265636F72643F
:10081000436F6E7461696E696E67496E64657800D6
:100820007265636F726420636F6E7461696E696E66
:1008300067206172726179207468617420696E64E6
:1008400065782073746172742066726F6D202575EF
:1008500020636F6E7461696E732061736B656420D1
:10086000676C6F62616C20696E6465782025750025
:100870006372632073756D206E6F74206D61746395
:10088000682120212021202100646F46756C6C5363
:10089000656E644379636C650073656E64696E6749
:1008A0002053454E4420616761696E207769746802
:1008B0002025752042206F6620646174612C2072AF
:1008C00065747279202575202F2025750073656E5B
:1008D0006453454E44416E645265616453454E44D1
:1008E00041434B00623120617661696C61626C65E5
:1008F0003D2575202C2077616974696E67546F53AC
:10090000656E6444617461436F756E743D25752C2A
:1009100020736E3D257500623220617661696C61DD
:10092000626C653D257500636F756C64206E6F7435
:100930002073656E642036206279746573206F665B
:100940002053454E4420636F6D6D616E6400636F8C
:10095000756C64206E6F742073656E64202575203D
:100960006279746573206F66206461746120696EBA
:10097000736964652053454E4420636F6D6D616EED
:100980006400636F756C64206E6F742073656E64B1
:100990002063726300696E636F6D6D696E672063BB
:1009A0006F6D6D616E64206E756D626572202825B5
:1009B0007529206E6F74206D617463682031006941
:1009C0006E636F6D6D696E672073657269616C200F
:1009D0006E756D6265722028257529206E6F7420F2
:1009E0006D6174636820257500696E636F6D6D6954
:1009F0006E672066697273742072657365727665BE
:100A00006420627974652028257529206E6F742012
:100A10006D61746368203000696E636F6D6D696E1F
:100A200067207365636F6E642072657365727665A7
:100A30006420627974652028257529206E6F7420E2
:100A40006D6174636820300061636B496E666F206E
:100A5000455252203A2828280053747265616D4827
:100A600046413131785253323332576946694352E5
:100A70004300484641313178525332333257694648
:100A8000694352430067657443524353756D006375
:100A9000616C63756C617465642063726353756D1A
:100AA000203D202575202C206C6F63616C435243E0
:100AB000636F756E746572203D20256C75007772CA
:100AC0006974654352434279746573546F53747209
:100AD00065616D0077726974696E6720746F207349
:100AE000747265616D20637263206869676842791A
:100AF0007465203D2025752C206C6F7742797465D4
:100B0000203D2025752028696E206F726465723A39
:100B1000206669727374204C4F572025752C207401
:100B200068656E20484947482062797465202575BC
:100B30002900526573745365727665720070726F26
:100B40006365737353747265616D00626567696E86
:100B50006E696E6720776F726B2C206578656375A0
:100B600074696E672027257327207375622D746161
:100B7000736B0074696D656F7574207768696C6557
:100B80002070726F63657373696E67207468697330
:100B90002072657175657374006874747020726575
:100BA0007175657374206D61782062797465732046
:100BB00072656163686564207768696C652070722E
:100BC0006F63657373696E672074686973207265FB
:100BD00071756573740066696E697368696E672004
:100BE000776F726B2C20616C726561647920657817
:100BF0006563757465642027257327207375622DDE
:100C00007461736B2061736B656420746F2072650F
:100C100073657420696E7465726E616C20737461A3
:100C200074652028667574757265206578656375CE
:100C300074696F6E2077696C6C20737461727420B4
:100C40007374617465206D616368696E6520667296
:100C50006F6D20626567696E6E696E6729006669EF
:100C60006E697368696E6720776F726B2C2063689A
:100C7000616E67696E6720616C7265616479206579
:100C80007865637574656420272573272073756202
:100C90002D7461736B20746F202725732700737484
:100CA0006172742074696D6520636F756E7465720E
:100CB00000647572696E67206E657874206578656A
:100CC000637574696F6E2074686572652077696CEE
:100CD0006C20626520636F6E74696E756174696FF4
:100CE0006E206F662063757272656E742073756214
:100CF0002D7461736B202827257327290074696D73
:100D0000656F7574207768696C652070726F6365B4
:100D10007373696E67207468697320726571756595
:100D200073740068747470207265717565737420D3
:100D30006D6178206279746573207265616368659E
:100D400064207768696C652070726F63657373697E
:100D50006E672074686973207265717565737400BD
:100D600066696E697368696E6720776F726B2C2095
:100D7000616C72656164792065786563757465641A
:100D80002027257327207375622D7461736B206192
:100D9000736B656420746F20726573657420696E6F
:100DA0007465726E616C2073746174652028667559
:100DB0007475726520657865637574696F6E2077E8
:100DC000696C6C2073746172742073746174652033
:100DD0006D616368696E652066726F6D206265671C
:100DE000696E6E696E67290066696E697368696EFF
:100DF0006720776F726B2C206368616E67696E671E
:100E000020616C72656164792065786563757465CD
:100E1000642027257327207375622D7461736B20FE
:100E2000746F2027257327007374617274207469AE
:100E30006D6520636F756E74657200647572696E9E
:100E400067206E65787420657865637574696F6E68
:100E50002074686572652077696C6C206265206318
:100E60006F6E74696E756174696F6E206F66206352
:100E7000757272656E74207375622D7461736B2068
:100E80002827257327290053656E64526573706F98
:100E90006E73655375625461736B00736574576F3D
:100EA000726B006973474554487474704D6574687B
:100EB0006F64203D2025752C2073656E6452657328
:100EC000706F6E7365496E4A534F4E203D202575F5
:100ED0002C2073656E64526573706F6E7365417319
:100EE000536572766963654D6574614465736372B9
:100EF000697074696F6E203D2025752C2073656CB8
:100F000065637465645365727669636573436F7571
:100F10006E74203D20257500657865637574655392
:100F200075625461736B0073656E64696E672072DD
:100F30006573706F6E73652C20696E2074686973B9
:100F400020657865637574696F6E2067656E65727C
:100F50006174696E6720726573706F6E7365206669
:100F60006F72207265737420736572766963652091
:100F7000756E64657220696E64657820257520271A
:100F800025732720286F6620616C6C202575290049
:100F9000536B69704279746573556E74696C5365EF
:100FA0007175656E63655375625461736B0044655A
:100FB0007465726D696E617465487474704D6574A2
:100FC000686F645375625461736B00526561644865
:100FD000747470506172616D657465724E616D6597
:100FE0005375625461736B006578656375746553FE
:100FF00075625461736B007365727669636520274F
:10100000257327206E6F74206D61746368696E6745
:1010100020696E636F6D6D696E67206874747020EF
:10102000706172616D65746572206E616D652C20F2
:1010300073657474696E6720617320756E73656C77
:1010400065637465640052656164487474705061CE
:1010500072616D6574657256616C75655375625425
:1010600061736B0070617273655265616450617287
:10107000616D6574657256616C756500666F72208E
:1010800072657374207365727669636520272573B2
:101090002720696E636F6D6D696E672076616C7570
:1010A00065203D202725732700756E737570706F5E
:1010B00072746564207265737420736572766963F7
:1010C0006520747970652C20747279656420746F62
:1010D0002073657420666F7220736572766963652C
:1010E000202725732720696E636F6D6D696E6720F9
:1010F00076616C7565203D20272573270052656158
:101100006448747470506174685375625461736B91
:1011100000657865637574655375625461736B001F
:1011200073747265616D52656164556E74696C5259
:101130006573756C74203D202D3100737472656188
:101140006D52656164556E74696C526573756C742B
:10115000203D202725632700616464696E67206154
:101160006C6C207365727669636573206265636178
:101170007573652074686572652077657265206E89
:101180006F2073656C65637465642073657276693E
:1011900063657300636F64652073686F756C6420AA
:1011A0006E6F74206E65766572207265616368206B
:1011B0007468697320706C6163652C207374726548
:1011C000616D52656164556E74696C526573756CBE
:1011D000743D2725732700657865637574655375BD
:1011E000625461736B006973537472696E675374F0
:1011F000617274735769746828293A737472203D58
:1012000020272573272C20737461727473576974B7
:1012100068203D20272573272C20726573756C7418
:10122000203D200066616C73650074727565006313
:101230006F6D70617265537472696E677300697364
:10124000537472696E67537461727473576974680A
:1012500028293A73747231203D20272573272C20CA
:1012600073747232203D20272573272C20726573FA
:10127000756C74203D200066616C73650074727536
:101280006500453A00573A00493A00413A000D0AD4
:101290000028293A003A3A0050696E486967684C5C
:1012A0006F7752756E6E61626C650073656E645225
:1012B00065636569766544617461526571756573CE
:1012C00074006368616E67696E672073746174652A
:1012D000206F662070696E2025752066726F6D2004
:1012E000257520746F2025750073657450696E0034
:1012F000746869732066756E6374696F6E206973B4
:10130000206E6F7420696D706C656D656E746564B8
:10131000207965742120636F756C64206E6F742072
:101320007365742063757272656E742070696E20C7
:101330002825752920746F206E65772070696E20CE
:1013400025750053747265616D52656164487474EB
:10135000704D6574686F64007265616400726574D5
:1013600075726E696E6720687474704D6574686F0D
:10137000643D25690053747265616D536B697042F9
:10138000797465730072656164006D61696E537490
:101390007265616D2D3E617661696C61626C652874
:1013A000293D3D302C2072657475726E696E672020
:1013B00030202874686572652077657265207265D3
:1013C000616420616E64206E6F7720746865726559
:1013D000206973206E6F206461746120696E2074CF
:1013E00068652073747265616D29007065656B4274
:1013F000797465203D20256320282575292C2061DE
:101400006C72656164794D61746368656442797476
:101410006573436F756E74203D202575007065659A
:101420006B42797465203D3D202D312C207265740E
:1014300075726E696E672030202874686572652049
:1014400077657265207265616420616E64206E6FDD
:1014500077207468657265206973206E6F206461FF
:10146000746120696E207468652073747265616DA3
:10147000290072657475726E696E67203100536160
:101480006D706C655461736B52756E6E61626C65E4
:101490000072756E005461736B4D616E61676572A9
:1014A000006164640063616E6E6F74206164642027
:1014B0007461736B20626563617573652074617319
:1014C0006B4D616E616765725265636F7264206F08
:1014D00072207461736B4D616E61676572526563F2
:1014E0006F72642D3E72756E6E61626C65206973F9
:1014F000204E554C4C0063616E6E6F7420616464C5
:10150000207461736B2C2061727261792069732081
:1015100066756C6C2C2063757272656E74207461D4
:10152000736B7320636F756E74202025752C207487
:1015300061736B4D616E616765725265636F726452
:101540002A203D20257500616464696E67207461FE
:10155000736B20756E64657220696E6465782025F2
:10156000752C207461736B4D616E61676572526595
:10157000636F72642A203D2025750072656D6F7659
:10158000654279506F696E7465720072656D6F7631
:10159000696E67207074722A203D2025752C2069A1
:1015A0006E207461736B73417272617920696E642D
:1015B0006578203D20257500636F756C64206E6F23
:1015C000742066696E64207074722A203D2025752F
:1015D00020696E207461736B73417272617900725D
:1015E000656D6F76654279496E6465780072656DE8
:1015F0006F76696E6720696E646578203D20257579
:101600002C207461736B7341727261795B25755D17
:10161000203D20257500696E76616C696420696ED5
:10162000646578203D2025752C206D6178546173A8
:101630006B73436F756E74203D200065786563752C
:10164000746500657865637574696E67207461738D
:101650006B20756E64657220696E646578202575EF
:101660002C207461736B4D616E61676572526563A6
:101670006F72642A203D2025752C20637572726577
:101680006E745461736B73436F756E74203D2025C7
:1016900075007461736B20756E64657220696E6489
:1016A00065782025752077616E74656420746F20DD
:1016B00062652072656D6F7665642066726F6D205D
:1016C0005461736B4D616E6167657220287074722E
:1016D0002A3D2575292C2077696C6C206265207263
:1016E000656D6F766564007461736B20756E6465FB
:1016F0007220696E64657820257520776173207289
:10170000656D6F7665642C2063757272656E7454B6
:1017100061736B73436F756E7420776173206465BA
:101720006372656173656420746F20257500636161
:101730006E6E6F742065786563757465207461736F
:101740006B207769746820696E6465782025642051
:10175000696E207461736B7341727261792C2074AD
:1017600061736B206973206E756C6C007072696EAA
:10177000745461736B73417272617900005B2575FB
:101780005D3D257500007265636F6D706163745413
:1017900061736B4172726179007265636F6D706124
:1017A0006374696E67207461736B41727261790052
:1017B0006F6C64207461736B41727261793A006E70
:1017C0006577207461736B41727261793A0070724F
:1017D0006576696F7573207461736B7320636F75C1
:1017E0006E743D25752C206E6577207461736B7364
:1017F00020636F756E643D2575005461736B4D6198
:101800006E616765725363686564756C657254696F
:101810006D65496E74657276616C730063616E45C7
:101820007865637574650072657475726E696E674C
:1018300020545255452C0077696C6C206E6F7420D3
:1018400062652065786563757465642061676169A8
:101850006E2C2077696C6C207265717565737420CD
:10186000746F2062652072656D6F766564206672A4
:101870006F6D205461736B4D616E616765720020FE
:1018800077696C6C20626520657865637574656442
:1018900020616761696E20696E2025756D73000097
:1018A00063616E52656D6F766546726F6D546173DC
:1018B0006B4D616E616765720072657475726E69F9
:1018C0006E67202575000000090A02080B0C0D0741
:1018D00006030401000000000000000000000000FA
:1018E00000000000000000000000000000000000F8
:1018F000000011100F0000000000000000000000B8
:1019000000000000000000000000000001021020A4
:101910002008081020401020408002010201080425
:1019200002010102040810204080804020100804B9
:101930000201800402018040201008040201080412
:101940000201010204081020408001020408102056
:10195000408005050505070508080808020202027F
:101960000A0A08080404040401010101010101013B
:101970000303030303030303040707070C0C0C0C06
:101980000C0C0C0C020202020606060606060606EF
:101990000B0B0B0B0B0B0B0B000020002300260086
:1019A00029002C002F003200000100000301060175
:1019B000090100002200250028002B002E00310024
:1019C000340002010000050108010B0100002100A4
:1019D000240027002A002D00300033000101000000
:1019E000040107010A018B151544901511241FBE2F
:1019F000CFEFD1E2DEBFCDBF00E00CBF1FE0A0E023
:101A0000B2E0ECECF9E900E00BBF02C007900D92E8
:101A1000A63DB107D9F719E1A6EDBFE001C01D92BF
:101A2000AD36B107E1F719E1CAEED9E100E006C031
:101A300022970109FE010BBF0E94B248C63ED107A2
:101A400080E00807A9F70E9453460C94D44C0C94EC
:101A50000000DC011696ED91FC91179783810895A3
:101A6000FC0186819781FC012381261711F00E94D9
:101A7000680E0895DC011696ED91FC91179783810D
:101A8000882319F020E032E002C023E032E0CB01ED
:101A9000B9010E94174508950F931F93CF93DF93C9
:101AA000EC01890124E00E946D288DED9DE0998371
:101AB00088831F830E83DF91CF911F910F9108952B
:101AC000DC011696ED91FC91179782810895FC0137
:101AD00086819781FC012281261711F00E94310E28
:101AE0000895DC011696ED91FC9117978281882369
:101AF00019F027E032E002C02AE032E0CB01B90160
:101B00000E94174508950F931F93CF93DF93EC0125
:101B1000890124E00E946D2881EF9DE099838883EC
:101B20001F830E83DF91CF911F910F910895CF9363
:101B3000DF93EC018E818B3058F5CE0104966BE873
:101B400072E142E451E00E94733500D000D0EDB75D
:101B5000FEB7319686E491E0ADB7BEB712969C937E
:101B60008E9311978A81828313828B81848315825D
:101B70000E940B4A0F900F900F900F908EE892E109
:101B8000EDB7FEB7928381830E940B4A0F900F90AE
:101B90008F8198850097C1F02A81222361F4DC01AE
:101BA000ED91FC910280F381E02D19950E9440484F
:101BB0008130910549F48F819885DC01ED91FC918C
:101BC0000190F081E02D199589859A850097C1F0E3
:101BD0002B81222361F4DC01ED91FC910280F381E1
:101BE000E02D19950E9440488130910549F489857E
:101BF0009A85DC01ED91FC910190F081E02D199521
:101C0000DF91CF910895AF92BF92CF92DF92EF9282
:101C1000FF920F93CF93DF930F92CDB7DEB75C01A6
:101C20006B01790185E09EE0F50191838083C50118
:101C3000049664EE70E049830E946835F501D08611
:101C4000C78249814283F286E18603830F90DF9148
:101C5000CF910F91FF90EF90DF90CF90BF90AF901A
:101C600008951F93CF93DF93EC01162F8E818B3055
:101C700050F5CE0104966BE872E146EF50E00E9409
:101C8000733500D000D0EDB7FEB731968FEF90E0FE
:101C9000ADB7BEB712969C938E9311978A818283BB
:101CA0001382148315820E940B4A0F900F900F909D
:101CB0000F908EE892E1EDB7FEB7928381830E9488
:101CC0000B4A0F900F901A83DF91CF911F910895C7
:101CD0001F93CF93DF93EC01162F8E818B3050F53D
:101CE000CE0104966BE872E149E151E00E94733540
:101CF00000D000D0EDB7FEB7319685E291E0ADB7E8
:101D0000BEB712969C938E9311978B818283138218
:101D1000148315820E940B4A0F900F900F900F9022
:101D20008EE892E1EDB7FEB7928381830E940B4A61
:101D30000F900F901B83DF91CF911F910895FC01AD
:101D4000808590E0880F991F880F991F0680F78182
:101D5000E02DE80FF91FCB01AA2797FDA095BA2F18
:101D600080839183A283B383089589E190E00895ED
:101D70008FEF9FE708950F931F93FC01808590E0FC
:101D8000880F991F880F991F0680F781E02DE80FB3
:101D9000F91F0081118122813381CB01B901A80192
:101DA0002AE030E00E94A0451F910F910895EF9224
:101DB000FF920F93CF93DF93EC01790126E00E940D
:101DC0006D288BE09EE099838883FF82EE820887EE
:101DD000DF91CF910F91FF90EF900895DB010D906F
:101DE0000020E9F7AD0141505040461B570BDC0184
:101DF000ED91FC910280F381E02D199508954F92A9
:101E00005F926F927F928F929F92AF92BF92CF928A
:101E1000DF92EF92FF92CF93DF93D62FC72FFC0173
:101E20008681882309F455C00E94AD4620E03CE538
:101E300046E255E00E94904849015A0120E83EEEF2
:101E400046E350E00E94904829013A016B017C0171
:101E50008D2F9C2FB4014AE050E00E94AF458D2F9A
:101E60009C2F6EE072E00E94EE0E8D2F9C2FB2012F
:101E70004AE050E00E94AF458D2F9C2F6EE072E04B
:101E80000E94EE0EC701B60120E63AEE40E050E0B7
:101E90000E9490486B017C018D2F9C2FB9014AE074
:101EA00050E00E94AF458D2F9C2F6EE072E00E94A3
:101EB000EE0EC701B60128EE33E040E050E00E948C
:101EC00090488D2F9C2FB9014AE050E00E94AF4509
:101ED0000AC00E94AD46AB01BC018D2F9C2F2AE0A9
:101EE00030E00E94A045DF91CF91FF90EF90DF900E
:101EF000CF90BF90AF909F908F907F906F905F90AA
:101F00004F9008951F93CF93DF93EC01122F20E0A1
:101F10000E946D288FE19EE0998388831E83DF9164
:101F2000CF911F910895FC01808590E00895FC01F8
:101F3000818590E00895CF93DF93EB01DC01169645
:101F40008D919C911797DC01ED91FC910190F081AE
:101F5000E02D1995682FCE014AE050E00E94B64569
:101F6000DF91CF910895CF92DF92EF920F93CF93AD
:101F7000DF93EC01690126E00E946D2883E39EE077
:101F800099838883DF82CE820887E986DF91CF91AB
:101F90000F91EF90DF90CF900895CF93DF93EC01F6
:101FA000FC01E350FF4F6081718105960E94A525D9
:101FB0009C81882379F09B3058F5CE0102966BE81E
:101FC00072E144E751E00E9473350F920F9285EB66
:101FD00091E00EC09B30E0F4CE0102966BE872E116
:101FE00044E751E00E9473350F920F9288E791E029
:101FF000EDB7FEB7928381830E940B4A8EE892E18F
:10200000EDB7FEB7928381830E940B4A0F900F9029
:10201000DF91CF9108952F923F924F925F927F92DE
:102020008F929F92AF92BF92CF92DF92EF92FF92E8
:102030000F931F93CF93DF9300D0CDB7DEB72C0162
:102040007A836983722E1801870176016501540134
:1020500027E43EE0DC012D933D93CD0164E671E081
:102060004B830E946835EDB7FEB73A970FB6F894E8
:10207000FEBF0FBEEDBF3196888D998DADB7BEB74F
:1020800012969C938E9311978A8D9B8D9383828356
:102090008C8D84838D8D9E8D968385838F8D98A165
:1020A0009087878389A18187C201059669817A819A
:1020B0004B819101872C0E94AE24F201E350FF4F27
:1020C0008AA19BA191838083EDB7FEB73A960FB6A4
:1020D000F894FEBF0FBEEDBF0F900F900F90DF91F1
:1020E000CF911F910F91FF90EF90DF90CF90BF9015
:1020F000AF909F908F907F905F904F903F902F90E8
:102100000895FC0120852F31D8F4069665E872E128
:102110004EEE51E00E9473350F920F928EEF91E0D8
:10212000EDB7FEB7928381830E940B4A8EE892E15D
:10213000EDB7FEB7928381830E940B4A0F900F90F8
:102140000895CF93DF93EC0125E00E946D288DE484
:102150009EE099838883CE0106966DED71E00E9422
:102160006835DF91CF910895CF93DF93EB01FC01A8
:10217000868197810E94383BAB01BC01CE012AE0E9
:1021800030E00E94A045DF91CF9108950F931F93F7
:10219000CF93DF93EC01890120E00E946D2881E656
:1021A0009EE0998388831F830E83DF91CF911F91D7
:1021B0000F910895682F8BE195E10E9430410895B9
:1021C0008F929F92AF92BF92CF92DF92EF92FF9247
:1021D0000F931F93CF93DF938130910509F059C27C
:1021E00083EA94E160E773E00E94683585E994E151
:1021F00065E070E044EB54E10E94B13B86E894E175
:1022000069EC7DE043E021E00E949E408DE794E18F
:102210006AE773E040E050E00E94853B89E794E183
:1022200066E874E14DE754E10E948C3F8AE694E150
:1022300069EB7DE044E021E00E949E4080E694E16D
:102240006DE040E00E945A3686E594E168E040E0A7
:102250000E945A368BE494E160E674E141E026E5A1
:1022600034E100E00E94030E87E494E16AE674E141
:102270004BE454E10E948C3F84E494E161E00E94CD
:102280002E2E82E494E10E94602480E494E10E9476
:10229000582384E394E160E040E152E021E232E03F
:1022A0000E9481248CE294E161E040E452E021E567
:1022B00032E00E94812485E294E162E045E552E04B
:1022C00020E00E94820F8EE194E163E043E652E059
:1022D00021E00E94820F85E194E164E04AE752E048
:1022E00029EB3DE003E00E94D70E8DE094E165E02C
:1022F0004BE852E02BE434E10E94830D85E094E149
:1023000066E041EA52E02BE434E10E944C0D8BEF91
:1023100093E167E04AEB52E022E634E100E0E5E3D6
:10232000EE2E0E94B30F81EF93E168E04DEC52E096
:1023300028E534E10E94B30F89EE93E169E043EEB2
:1023400052E02CE033E00E94812480EE93E16DEFB7
:1023500042E153E00E94A11088ED93E16EEF48E165
:1023600053E02CE334E10E94C6108BE892E169E867
:1023700073E00E946835E6E8F2E18EE892E190931E
:1023800087128093861280EF8283848313828DE587
:1023900092E190935A128093591210925C1210920B
:1023A0005B1289E492E1909346128093451289E58D
:1023B00092E1909348128093471285E392E19093C3
:1023C00032128093311285E492E19093341280931B
:1023D000331281E292E190931E1280931D1281E3E9
:1023E00092E19093201280931F128DE092E19093DE
:1023F0000A12809309128DE192E190930C1280935E
:102400000B1289EF91E19093F6118093F51189E019
:1024100092E19093F8118093F711C1EED1E185EE2E
:1024200091E19093E2118093E11185EF91E1909316
:10243000E4118093E31185ED91E163E973E00E947B
:102440006835D093D911C093D81180E18093DC1105
:10245000D093DB11C093DA118093DD11E091E31189
:10246000F091E41108C08091DD11805F8093DD114F
:102470000280F381E02D3097B1F71092DE111092B7
:10248000E0111092DF1185EC91E19093C2118093DD
:10249000C1111092C4111092C31181EB91E190937C
:1024A000AE118093AD1181EC91E19093B0118093C6
:1024B000AF118DE991E190939A11809399118DEA72
:1024C00091E190939C1180939B1189E891E1909305
:1024D00086118093851189E991E190938811809309
:1024E000871185E791E1909372118093711185E8CE
:1024F00091E1909374118093731181E691E190932F
:102500005E1180935D1181E791E19093601180935A
:102510005F118DE491E190934A11809349118DE50B
:1025200091E190934C1180934B11C5E3D1E189E384
:1025300091E1909336118093351189E491E1909364
:1025400038118093371189E291E163E973E00E94C9
:102550006835D0932D11C0932C1180E180933011F8
:10256000D0932F11C0932E1180933111E091371128
:10257000F091381108C080913111805F8093311142
:102580000280F381E02D3097B1F710923211109252
:1025900034111092331181E291E167E67DE04EE063
:1025A0002CE334E10E94EA2A8DE191E16CE374E1CD
:1025B0000E94192488EF90E16EEB74E10E949E2145
:1025C000CDEDD0E1CE0165ED71E149E251E128EFB9
:1025D00030E10E9495158DB79EB70C970FB6F89411
:1025E0009EBF0FBE8DBFEDB7FEB731968CE993E16C
:1025F000ADB7BEB712969C938E9311978EE793E179
:10260000938382838EE1848386E892E19683858337
:102610008DE692E19087878389E18187D387C2879E
:102620008EED9FE067E67DE04EE020E001E211E103
:102630000F2EFDE1EF2EF1E1FF2EF02D0F2EF1E335
:10264000CF2EF3E0DF2EF02D0F2EF3E3AF2EF3E0CD
:10265000BF2EF02D0F2EF8EA8F2EF3E19F2EF02DD6
:102660000E940B108DB79EB70C960FB6F8949EBFC4
:102670000FBE8DBF8AED9FE061E040E00E94563BB7
:1026800086ED9FE06AED7FE04EED5FE00E948C3FBB
:1026900006C0009721F485E994E10E94A33BDF91F5
:1026A000CF911F910F91FF90EF90DF90CF90BF904F
:1026B000AF909F908F90089585E994E10E943E3EEF
:1026C0000895CF93DF938091A5148F31F0F483EABE
:1026D00094E165E872E14DEE52E00E9473350F928D
:1026E0000F9289EF92E0ADB7BEB712969C938E938E
:1026F00011970E940B4A8EE892E1EDB7FEB79283E4
:1027000081830E940B4A0F900F908091A5148F3106
:1027100090F583EA94E165E872E14DEE52E00E94A3
:1027200073350E94A635EC010E94A63500D000D07A
:10273000EDB7FEB7319627E033E0ADB7BEB71296DE
:102740003C932E931197D383C28320E030E2281B61
:10275000390B358324830E940B4A0F900F900F9002
:102760000F908EE892E1EDB7FEB7928381830E94CD
:102770000B4A0F900F908091A5148F3150F583EA8A
:1027800094E165E872E14DEE52E00E9473350E94DB
:10279000AD46DC01CB0100D000D02FE233E0EDB735
:1027A000FEB73283218383839483A583B6830E94FB
:1027B0000B4A0F900F900F900F908EE892E1ADB7FB
:1027C000BEB712969C938E9311970E940B4A0F905E
:1027D0000F908091A5148F31F0F483EA94E165E8BD
:1027E00072E14DEE52E00E9473350F920F928DE32D
:1027F00093E0EDB7FEB7928381830E940B4A8EE887
:1028000092E1ADB7BEB712969C938E9311970E943A
:102810000B4A0F900F90DF91CF9108958091A514EE
:102820008932E0F483EA94E162E872E14BE453E038
:102830000E9473350F920F9285E593E0EDB7FEB7D6
:10284000928381830E940B4A8EE892E1EDB7FEB736
:10285000928381830E940B4A0F900F9060ED77E086
:1028600080E090E00E94E94608950F931F93CF9374
:10287000DF93EC018B018091A514853148F583EA43
:1028800094E168E872E144E752E00E94733500D0B9
:1028900000D0EDB7FEB7319689E892E0ADB7BEB78C
:1028A00012969C938E93119713830283D583C483CE
:1028B0000E940B4A0F900F900F900F908EE892E1BC
:1028C000EDB7FEB7928381830E940B4A0F900F9061
:1028D00085E994E1BE010E94D23B882381F5809175
:1028E000A514893220F583EA94E162E872E144E7B5
:1028F00052E00E94733500D00F9289EB92E0ADB7A1
:10290000BEB712969C938E9311971496DC93CE9338
:1029100013970E940B4A0F900F908EE892E1EDB74B
:10292000FEB7928381830E940B4A0F900F9060E163
:1029300077E280E090E00E94E9460E940E14DF9169
:10294000CF911F910F91089587E494E165E373E0BF
:102950000E94351489E794E162E473E00E94351423
:102960008EEB94E140E052EC61E070E00E94914314
:102970008DED90E10E94C51686ED9FE06DE473E059
:102980000E94351408958BE195E140E052EC61E03E
:1029900070E00E9491438AED90E19093AF14809390
:1029A000AE141092B1141092B01482E08093A91466
:1029B0001092B3141092B21486EA94E190936A19BB
:1029C0008093691986E594E10E94CA3562E070E05F
:1029D00080E090E00E94E94686E594E10E94CA35D5
:1029E0008091A5148531E0F483EA94E168E872E10E
:1029F00040E152E00E9473350F920F9286E192E01F
:102A0000EDB7FEB7928381830E940B4A8EE892E174
:102A1000EDB7FEB7928381830E940B4A0F900F900F
:102A20008091A514853110F583EA94E168E872E19C
:102A300040E152E00E94733500D00F9284E292E0B0
:102A4000EDB7FEB79283818384E190E09483838322
:102A50000E940B4A0F900F908EE892E1EDB7FEB7FF
:102A6000928381830E940B4A0F900F900E94611302
:102A70008091A5148531E0F483EA94E168E872E17D
:102A800040E152E00E9473350F920F9285E492E08C
:102A9000EDB7FEB7928381830E940B4A8EE892E1E4
:102AA000EDB7FEB7928381830E940B4A0F900F907F
:102AB0000E94A4148091A5148531E0F483EA94E186
:102AC00068E872E140E152E00E9473350F920F9284
:102AD0008DE592E0EDB7FEB7928381830E940B4AA9
:102AE0008EE892E1EDB7FEB7928381830E940B4A94
:102AF0000F900F900E94611386E594E10E94CA3501
:102B000062E070E080E090E00E94E94686E594E1B2
:102B10000E94CA35089581E090E00E94E010089577
:102B200080E090E00E94E0100895CF92DF92EF9253
:102B3000FF920F931F93CF93DF93EC016B017A0108
:102B400089011B821A8288EE93E0A0E0B0E08C83BA
:102B50009D83AE83BF8385E79EE099838883CE0102
:102B60000C9661EA73E00E946835D88ACF86FA8AAB
:102B7000E98A1C8B0B8B1D8A1E8A1F8A188E198E60
:102B80001A8EDF91CF911F910F91FF90EF90DF9000
:102B9000CF9008952F923F924F925F926F927F92C3
:102BA0008F929F92BF92CF92DF92EF92FF920F93FC
:102BB0001F93CF93DF93EC01F62E00E010E002C0EC
:102BC0000F5F1F4FEB89FC8984859585DC01ED91B2
:102BD000FC910680F781E02D1995BFEF8F3F9B0791
:102BE00079F78E858B3010F5CE010C966BE872E18B
:102BF00041EB54E00E94733500D00F9289ED94E0D0
:102C0000EDB7FEB792838183148303830E940B4A3E
:102C10000F900F908EE892E1ADB7BEB712969C93DD
:102C20008E9311970E940B4A0F900F90FF2009F48A
:102C30009AC0BE88EE24FF2482E0D82E93E0C92EED
:102C400025E1822E912C8C0E9D1E3CE0632E712C72
:102C50006C0E7D1E46EF442E44E0542E5EE8252E79
:102C600052E1352EDD8AEE8A198ECA8E8B899C89B7
:102C70000E94CA218B899C89DC01ED91FC91028024
:102C8000F381E02DB40146E050E019958B899C89D1
:102C90000E94D2218B899C89DC01ED91FC910284F8
:102CA000F385E02D199515E0EB89FC8984859585E0
:102CB000DC01ED91FC910480F581E02D19958830BF
:102CC00091050CF446C000E010E002C00F5F1F4FFA
:102CD000EB89FC8984859585DC01ED91FC9106806A
:102CE000F781E02D1995BFEF8F3F9B0779F78E8510
:102CF000853120F5C30168E872E141EB54E00E94A0
:102D0000733500D000D0EDB7FEB73196ADB7BEB782
:102D100012965C924E921197F382E282158304839D
:102D20000E940B4A0F900F900F900F90EDB7FEB7D7
:102D3000328221820E940B4A0F900F900894E11C6E
:102D4000F11CF0E0EF16F1E0FF0609F08BCFBE8A30
:102D50000AC065E070E080E090E00E94E946115012
:102D600009F4B1CFA1CFDF91CF911F910F91FF90C7
:102D7000EF90DF90CF90BF909F908F907F906F905B
:102D80005F904F903F902F900895CF93DF93EC0189
:102D900061E00E94CA158B899C890E949121EF8570
:102DA000F8891186138612868381948196838583A0
:102DB000E989FA8911861386128683819481968324
:102DC0008583DF91CF910895CF93DC0119962C91E3
:102DD000199730E01A964D915C911B97241735078F
:102DE000C0F51396ED91FC9114970190F081E02DC0
:102DF000E20FF31FC08112962C9112972B3008F02E
:102E00004BC06BE872E14FE754E00E94733500D08D
:102E100000D0EDB7FEB7319684E894E0ADB7BEB709
:102E200012969C938E931197C2831382C48315824A
:102E30000E940B4A0F900F900F900F908EE892E136
:102E4000EDB7FEB7928381830E940B4A0F900F90DB
:102E500023C0DC0112962C9112972F31E0F465E823
:102E600072E14FE754E00E9473350F920F9285E9AB
:102E700094E0EDB7FEB7928381830E940B4A8EE8FF
:102E800092E1ADB7BEB712969C938E9311970E94B4
:102E90000B4A0F900F90C0E08C2FCF910895AF9206
:102EA000BF92CF92DF92EF92FF920F931F93CF9337
:102EB0008C015B01DC011A96ED91FC911B97189631
:102EC0002C91189730E019968C911997BF01681BC7
:102ED0007109261B370B7A012417350708F479018D
:102EE000D80117966C911797CF0170E00E9469483E
:102EF000C82FCC24DD2416C0282F30E0C20ED31EEC
:102F0000E21AF30AC80FF8018781C81758F0058044
:102F1000F681E02D82819381D80116969C938E9341
:102F20001597C0E0E114F104E9F0D8011596ED9190
:102F3000FC9116973097B1F08C2F90E060817181F1
:102F4000680F791F17964C91179750E0481B590B43
:102F5000E416F50608F4A701C50150E00E942F46CB
:102F6000882351F6F801828593858C0D9D1D9387EA
:102F70008287C601CF911F910F91FF90EF90DF9054
:102F8000CF90BF90AF9008952F923F924F925F9253
:102F90006F927F928F929F92AF92BF92CF92DF9269
:102FA000EF92FF920F931F93CF93DF938C01DC017D
:102FB0001F96ED91FC915097C085D0E021858285C8
:102FC0009385821B9109C81BD90BCC2ECC2309F405
:102FD000E0C31E968C911E978B30F0F5C8010C96BD
:102FE0006BE872E140E555E00E947335F801838992
:102FF0009489DC01ED91FC910480F581E02D199517
:10300000EDB7FEB738970FB6F894FEBF0FBEEDBF11
:10301000319627E635E0ADB7BEB712963C932E93B6
:10302000119793838283C4831582D80156968C911D
:10303000868317820E940B4AEDB7FEB736960FB60D
:10304000F894FEBF0FBEEDBF8EE892E192838183BC
:103050000E940B4A0F900F90C80160E00E94CA15B1
:10306000D8011E968C911E978B3060F5C8010C9686
:103070006BE872E140E555E00E947335F801838901
:103080009489DC01ED91FC910480F581E02D199586
:1030900000D00F922DE835E0EDB7FEB732832183E3
:1030A000948383830E940B4A0F900F908EE892E1E5
:1030B000ADB7BEB712969C938E9311970E940B4AA0
:1030C0000F900F90F801838994890E94CA2182E0B1
:1030D000D80155968C9355975996CC9259975A96F4
:1030E0001C925A9753968D919C915497DC01ED91C7
:1030F000FC91B8016B5E7F4F0280F381E02D46E0CA
:1031000050E01995F801268586309105C1F02F31E0
:1031100008F041C3C8010C9665E872E140E555E04E
:103120000E9473350F920F928DE995E0ADB7BEB74F
:1031300012969C938E9311970E940B4AC8C02B3015
:1031400070F5C8010C966BE872E140E555E00E940D
:103150007335D80153968D919C915497DC01ED9174
:10316000FC910480F581E02D199500D00F9224EC9C
:1031700035E0EDB7FEB732832183948383830E94C9
:103180000B4A0F900F908EE892E1ADB7BEB7129642
:103190009C938E9311970E940B4A0F900F90F80109
:1031A000838994890E94D2218823A1F4D8011E9694
:1031B0008C911E978F3108F0EEC2C8010C9665E81D
:1031C00072E140E555E00E9473350F920F9284ED55
:1031D00095E0CCC2F80183899489DC01ED91FC91E2
:1031E0000284F385E02D1995F80186858B3070F502
:1031F000C8010C966BE872E140E555E00E9473351A
:10320000D80153968D919C915497DC01ED91FC91DE
:103210000480F581E02D199500D00F9227EE35E05E
:10322000EDB7FEB732832183948383830E940B4AD8
:103230000F900F908EE892E1ADB7BEB712969C93B7
:103240008E9311970E940B4A0F900F90F80183897B
:1032500094890E94CE21D80153968D919C915497C8
:10326000DC01ED91FC910480F581E02D199586300B
:1032700091058CF3F80183899489DC01ED91FC912F
:103280000680F781E02D1995C82F823039F1F801B9
:1032900086858F3108F07FC2C8010C9665E872E11F
:1032A00040E555E00E94733500D00F92EDB7FEB7B0
:1032B000319687EF95E0ADB7BEB712969C938E938B
:1032C0001197C28313820E940B4A0F900F908EE8D1
:1032D00092E1EDB7FEB79283818356C2D80153962F
:1032E0008D919C915497DC01ED91FC910680F781C2
:1032F000E02D1995C82FF8018689C81709F1868530
:103300008F3108F048C2C8010C9665E872E140E5CB
:1033100055E00E94733500D000D0EDB7FEB731966E
:1033200081E296E0ADB7BEB712969C938E9311974B
:10333000C2831382D80156968C915697848382C09B
:1033400083899489DC01ED91FC910680F781E02D61
:103350001995C82F8823A9F0F80186858F3108F0C8
:103360001AC2C8010C9665E872E140E555E00E947A
:10337000733500D00F92EDB7FEB731968BE496E02F
:103380009ACFD80153968D919C915497DC01ED9181
:10339000FC910680F781E02D1995C82F8823A9F0AC
:1033A000F80186858F3108F0F6C1C8010C9665E8F2
:1033B00072E140E555E00E94733500D00F92EDB701
:1033C000FEB731968AE796E076CFD80153968D9175
:1033D0009C915497DC01ED91FC910680F781E02DE2
:1033E00019957C01F80183899489DC01ED91FC91A8
:1033F0000680F781E02D1995382F20E0E20EF31EAC
:103400008C2D90E0F80126858E159F0518F52F313B
:1034100008F0C1C1C8010C9665E872E140E555E0CD
:103420000E94733500D000D0EDB7FEB731968AEA1E
:1034300096E0ADB7BEB712969C938E931197F38228
:10344000E282C48215820E940B4A0F900F900F9067
:103450000F903DCF2B3048F5C8010C966BE872E118
:1034600040E555E00E94733500D000D0EDB7FEB7BF
:10347000319680EE96E0ADB7BEB712969C938E93D0
:103480001197C2821382F582E4820E940B4A0F9048
:103490000F900F900F908EE892E1EDB7FEB79283F8
:1034A00081830E940B4A0F900F90AA24BB246CE0EA
:1034B000862E912C800E911E7FE9472E77E0572EA5
:1034C000EEE86E2EE2E17E2EFBE32F2EF7E03F2E9C
:1034D000A4C0D80153968D919C915497DC01ED9135
:1034E000FC910480F581E02D1995EC01F8018685A9
:1034F000209709F46CC0853118F5C40168E872E1C1
:1035000040E555E00E94733500D00F92E9E0F7E006
:10351000ADB7BEB71296FC93EE9311971496DC9359
:10352000CE9313970E940B4A0F900F90ADB7BEB782
:1035300012967C926E9211970E940B4A0F900F90F8
:10354000C7018A199B098C179D0708F4EC01F80143
:103550006389748987859089AE010E944F176C0139
:10356000D8011E968C911E97853170F5C40168E8CC
:1035700072E140E555E00E947335EDB7FEB73A972A
:103580000FB6F894FEBF0FBEEDBF3196ADB7BEB714
:1035900012963C922E921197D383C283D582C48215
:1035A000B782A682F186E0860E940B4AEDB7FEB78D
:1035B00038960FB6F894FEBF0FBEEDBF72826182DF
:1035C0000E940B4A0F900F90AC0CBD1C26C08B3094
:1035D00020F5C4016BE872E140E555E00E947335C7
:1035E00000D000D0EDB7FEB73196ADB7BEB712969A
:1035F0005C924E921197B382A282F582E4820E947D
:103600000B4A0F900F900F900F90EDB7FEB772829C
:1036100061820E940B4A0F900F90AE14BF0408F411
:1036200058CFD80153968D919C915497DC01ED9120
:10363000FC910480F581E02D1995823091058CF381
:10364000F80186858B3070F5C8010C966BE872E145
:1036500040E555E00E947335D80153968D919C91B9
:103660005497DC01ED91FC910480F581E02D1995D2
:1036700000D00F9226EF37E0EDB7FEB732832183FB
:10368000948383830E940B4A0F900F908EE892E1FF
:10369000ADB7BEB712969C938E9311970E940B4ABA
:1036A0000F900F90F801838994890E94D921882373
:1036B00049F0D80156968C9156978F5F56968C9309
:1036C000569767C0F801C785D0894A855B8589858B
:1036D0009A01281B3109C5012A153B0508F4C901C7
:1036E0007A01E81AF90AFB86EA86CB80DC808A81B7
:1036F0008B3040F5CE016BE872E147E058E00E9464
:10370000733500D000D0EDB7FEB7319680E298E077
:10371000ADB7BEB712969C938E9311971382128207
:10372000F582E4820E940B4A0F900F900F900F9049
:103730008EE892E1EDB7FEB7928381830E940B4A37
:103740000F900F90DE82CD82D8011E968C911E972D
:103750008F3108F5C8010C9665E872E140E555E047
:103760000E9473350F920F9280E798E0EDB7FEB795
:10377000928381830E940B4A8EE892E1ADB7BEB777
:1037800012969C938E9311970E940B4A0F900F9064
:1037900002C081E001C080E0DF91CF911F910F91C5
:1037A000FF90EF90DF90CF90BF90AF909F908F9061
:1037B0007F906F905F904F903F902F9008958F92E1
:1037C0009F92AF92BF92CF92DF92EF92FF920F93B0
:1037D0001F93CF93DF938C01C0E0D0E0ACE0EA2EE2
:1037E000F12CE80EF91EBEE2CB2EB5E0DB2E24E173
:1037F000A22EB12C3EE8832E32E1932EC8010E9406
:10380000C417882371F5D8011E968C911E978531B7
:1038100020F5C70168E872E14EE155E00E9473357A
:1038200000D000D0EDB7FEB73196ADB7BEB7129657
:10383000DC92CE921197D383C283B582A4820E9478
:103840000B4A0F900F900F900F90EDB7FEB792823A
:1038500081820E940B4A0F900F902196C431D105AE
:1038600069F6DF91CF911F910F91FF90EF90DF905C
:10387000CF90BF90AF909F908F900895CF93DF939C
:10388000EC01EF85F88991858285891B59F4CE0179
:103890000E94DF1BEF85F889218582859385821B35
:1038A000910901C090E0DF91CF910895CF93DF930C
:1038B000EC01EF85F889818590E022853385281712
:1038C000390719F4CE010E94DF1B8F859889FC010E
:1038D000218530E0428553854217530721F00E942D
:1038E000E41690E002C08FEF9FEFDF91CF91089533
:1038F000CF93DF93EC014985242F30E08A859B85A7
:1039000028173907B1F58A818B3058F5CE016BE85D
:1039100072E14AEE53E00E94733500D000D0EDB75B
:10392000FEB731968EEF93E0ADB7BEB712969C937B
:103930008E9311978985828313828A859B859583CF
:1039400084830E940B4A0F900F900F900F908EE887
:1039500092E1EDB7FEB7928381830E940B4A0F90EC
:103960000F9019861B861A868B819C819E838D837E
:1039700053C08F81481708F44FC08A818B3050F5AF
:10398000CE016BE872E14AEE53E00E94733500D03D
:1039900000D0EDB7FEB7319689E394E0ADB7BEB77E
:1039A00012969C938E9311978985828313828F81BF
:1039B000848315820E940B4A0F900F900F900F90F6
:1039C0008EE892E1EDB7FEB7928381830E940B4AA5
:1039D0000F900F90AB81BC811296ED91FC911397E3
:1039E000FC83EB8301C0FC01828193810097D9F7AE
:1039F000B383A28313961C921E9212978D819E818F
:103A0000009711F4BE83AD8319862F818A859B852B
:103A1000821B91099B878A87DF91CF9108950F932D
:103A20001F93CF93DF938C01FC01218582859385C1
:103A3000821B9109EB0186179707A8F4EC0113C0CC
:103A4000F8012185878190E0821B91093C2F8C171A
:103A50009D0708F4382F230FF8012187C31BD109D4
:103A6000C8010E94781C209759F780E090E0DF9110
:103A7000CF911F910F9108954F925F926F927F9215
:103A80008F929F92AF92BF92CF92DF92EF92FF926E
:103A90000F931F93CF93DF938C01462E3A01DC01E5
:103AA0001996AC901997BB241A968D919C911B97EF
:103AB0008A199B09E9018217930708F4EC01F801C0
:103AC000E380F480CC24DD24862C572C05C0D7015C
:103AD0001296ED90FC901397209789F1E114F10470
:103AE00071F1F801278130E0C501B9010E946948F0
:103AF000982ED301ED91FC9190E0D7016D917C91CE
:103B00001197680F791FA901481B590BC417D507D6
:103B100008F4AE010280F381E02D882D952D50E050
:103B20001995282F30E0C20ED31EC21BD30BA20E54
:103B3000B31E980EF8019781991648F6CDCF442010
:103B400021F0C801B6010E940F1DC601DF91CF917F
:103B50001F910F91FF90EF90DF90CF90BF90AF90AB
:103B60009F908F907F906F905F904F900895CF922D
:103B7000DF92FF920F931F93CF93DF93EC01E989BC
:103B8000FA89818502851385081B1109F02E00230F
:103B900009F4DBC18E858B30D8F5CE010C966BE82D
:103BA00072E14DEC58E00E9473358B899C89DC01F1
:103BB000ED91FC910480F581E02D1995EDB7FEB7EC
:103BC00038970FB6F894FEBF0FBEEDBF319624EEC6
:103BD00038E0ADB7BEB712963C932E9311979383FE
:103BE0008283048315828E89868317820E940B4A02
:103BF000EDB7FEB736960FB6F894FEBF0FBEEDBF19
:103C00008EE892E1928381830E940B4A0F900F907D
:103C1000CE0160E00E94CA158E858B3058F5CE012A
:103C20000C966BE872E14DEC58E00E9473358B897D
:103C30009C89DC01ED91FC910480F581E02D1995C2
:103C400000D00F9227E139E0EDB7FEB73283218330
:103C5000948383830E940B4A0F900F908EE892E129
:103C6000ADB7BEB712969C938E9311970E940B4AE4
:103C70000F900F908B899C890E94CA2181E08D8BC7
:103C8000F98E1A8E8B899C89DC01ED91FC91BE0125
:103C90006B5E7F4F0280F381E02D46E050E0199586
:103CA0008630910589F08E858F3108F050C1CE01A4
:103CB0000C9665E872E14DEC58E00E9473350F9266
:103CC0000F9287E299E02EC10F2D10E04B895C899D
:103CD00089899A8960E098010E943C1D6C018017D7
:103CE0009107D9F08E858F3108F031C1CE010C9645
:103CF00065E872E14DEC58E00E94733500D00F92F8
:103D0000EDB7FEB731968EE499E0ADB7BEB7129627
:103D10009C938E931197F2825CC08B899C890E9440
:103D2000D2218823C9F48E858F3108F010C1CE01CD
:103D30000C9665E872E14DEC58E00E9473350F92E5
:103D40000F9282E899E0ADB7BEB712969C938E931E
:103D500011970E940B4A42C08B899C89DC01ED912E
:103D6000FC910284F385E02D19958B899C89DC01F7
:103D7000ED91FC910480F581E02D19958530910538
:103D8000A4F3EB89FC8984859585DC01ED91FC9198
:103D90000680F781E02D1995182F813031F18E853D
:103DA0008F3108F0D4C0CE010C9665E872E14DEC7D
:103DB00058E00E94733500D00F92EDB7FEB73196F0
:103DC00085E999E0ADB7BEB712969C938E93119793
:103DD000128313820E940B4A0F900F908EE892E19B
:103DE000EDB7FEB792838183ABC0EB89FC898485F4
:103DF0009585DC01ED91FC910680F781E02D199508
:103E0000182F8E89181729F18E858F3108F09FC0E1
:103E1000CE010C9665E872E14DEC58E00E947335D6
:103E200000D000D0EDB7FEB731968FEB99E0ADB77B
:103E3000BEB712969C938E931197128313828E892C
:103E4000848315820E940B4A0F900F900F900F9061
:103E5000C5CFEB89FC8984859585DC01ED91FC91CA
:103E60000680F781E02D1995182F8823A1F08E8503
:103E70008F3108F06CC0CE010C9665E872E14DEC14
:103E800058E00E94733500D00F92EDB7FEB731961F
:103E900089EE99E097CFEB89FC8984859585DC01D3
:103EA000ED91FC910680F781E02D1995182F88235C
:103EB000A1F08E858F3108F04AC0CE010C9665E8DE
:103EC00072E14DEC58E00E94733500D00F92EDB7CF
:103ED000FEB7319688E19AE075CFEB89FC8984853D
:103EE0009585DC01ED91FC910680F781E02D199517
:103EF000882349F489899A89B6010E940F1D8E8909
:103F00008F5F8E8B22C08E858F3108F5CE010C9687
:103F100065E872E14DEC58E00E9473350F920F9204
:103F200088E49AE0EDB7FEB7928381830E940B4A42
:103F30008EE892E1ADB7BEB712969C938E9311971F
:103F40000E940B4A0F900F9002C081E001C080E0F8
:103F5000DF91CF911F910F91FF90DF90CF90089547
:103F60008F929F92AF92BF92CF92DF92EF92FF9289
:103F70000F931F93CF93DF938C01C0E0D0E04CE010
:103F8000E42EF12CE80EF91E59E9C52E58E0D52E85
:103F900064E1A62EB12C7EE8872E72E1972EC8012F
:103FA0000E94B71D882309F04BC0D8011E968C9142
:103FB0001E978F3108F03FC0C70165E872E149E8FC
:103FC00058E00E947335F801418952898DB79EB738
:103FD00008970FB6F8949EBF0FBE8DBFADB7BEB7A2
:103FE0001196EDB7FEB7D282C182FA012185828592
:103FF0009385821B910913969C938E931297159625
:10400000DC93CE9314971796BC92AE9216970E94AB
:104010000B4A8DB79EB706960FB6F8949EBF0FBE9B
:104020008DBFADB7BEB712969C928E9211970E942B
:104030000B4A0F900F902196C431D10509F0AFCFF4
:10404000DF91CF911F910F91FF90EF90DF90CF9074
:10405000BF90AF909F908F9008951F93CF93DF9361
:10406000EC01162F03C0CE010E94B01FE989FA8926
:10407000408550E0228533858185B901681B71092F
:104080004617570781F3C581D6812097F1F06781E4
:10409000C90170E00E946948A881B981A80FB91FC1
:1040A0001C9382859385019693878287678170E050
:1040B0000E946948009759F4A581B68112968D91A6
:1040C0009C9113979683858302C080E001C081E0B4
:1040D00090E0DF91CF911F9108951F93CF93DF93CD
:1040E000EC011AE0E989FA89818590E0228533851F
:1040F0002817390729F0CE010E94B01F115091F7FF
:10410000DF91CF911F9108951F93CF93DF93EC011F
:104110004985842F90E02A853B8582179307C8F54F
:10412000EB81FC810190F081E02DE80FF91F1081F7
:104130004F5F49878A818B3040F5CE016BE872E191
:1041400048EB53E00E94733500D000D0EDB7FEB7C6
:1041500031968DEB93E0ADB7BEB712969C938E93DC
:10416000119712831382148315820E940B4A0F90B9
:104170000F900F900F908EE892E1EDB7FEB792830B
:1041800081830E940B4A0F900F90CE010E94781CF1
:1041900021C08A818F31E8F4CE0165E872E148EBF5
:1041A00053E00E9473350F920F928EEC93E0ADB7FF
:1041B000BEB712969C938E9311970E940B4A8EE87D
:1041C00092E1EDB7FEB7928381830E940B4A0F9074
:1041D0000F9010E0812FDF91CF911F910895CF9321
:1041E000DF93EC01EF85F889818590E022853385A6
:1041F0002817390719F4CE010E94DF1B8F85988993
:10420000FC01218530E0428553854217530721F098
:104210000E94842090E002C08FEF9FEFDF91CF914A
:104220000895DC011C968D919C911D97DC01ED9108
:10423000FC910084F185E02D19950895DC011C9610
:104240008D919C911D97DC01ED91FC910284F38589
:10425000E02D19950895DC011C968D919C911D9778
:10426000DC01ED91FC910480F581E02D1995089514
:10427000EF92FF920F931F93CF93DF93EC017B019B
:10428000142F052F41960E9439228C859D85DC01D3
:10429000ED91FC910280F381E02DB701412F502F69
:1042A0001995812F902FDF91CF911F910F91FF9042
:1042B000EF9008951F93CF93DF93EC01162F419653
:1042C0000E941E228C859D85DC01ED91FC91019060
:1042D000F081E02D612F1995DF91CF911F91089505
:1042E0000F931F93CF93DF938C01DC011C968D916C
:1042F0009C911D97DC01ED91FC910680F781E02DEA
:104300001995EC01BFEF8F3F9B0729F0C8014B9631
:104310006C2F0E941E22CE01DF91CF911F910F9131
:104320000895CF93DF93EC014B960E941722CE01A4
:1043300041960E941722DF91CF9108950F931F930A
:10434000CF93DF93EC018B011B821A8288EE93E0FE
:10435000A0E0B0E08C839D83AE83BF8385E89EE0C0
:1043600099838883CE010E9669E57AE00E946835CC
:10437000CE0141960E940822CE014B960E9408224F
:104380001D870C87CE010E949121DF91CF911F9153
:104390000F91089541960E94172208954B960E940E
:1043A00017220895FC016485758541960E94E622D6
:1043B0000895EF92FF920F931F93CF93DF93EC0139
:1043C0004B960E947E227C018C859D85DC01ED91BF
:1043D000FC910680F781E02D1995082F10E08C855F
:1043E0009D85DC01ED91FC910680F781E02D19950A
:1043F000382F20E0020F131F81E00E151F0509F072
:1044000080E0DF91CF911F910F91FF90EF90089581
:10441000CF93DF93EC0162E77AE00E9468351E8259
:104420001F82188619861D82DF91CF910895FC01A5
:10443000168217821086118615820895FC018581E7
:10444000882321F4638381E08583089564838381D5
:104450009481A0E0B0E04681578160857185480F66
:10446000591F6A1F7B1F4683578360877187158298
:104470000895CF92DF92EF92FF920F931F93CF9305
:104480008C01C42FFC018581882341F0C801FB0108
:1044900061917F010E941E22C15001C07B01670112
:1044A0002C2F14C0F601419151916F0160E070E032
:1044B000F80186819781A085B185840F951FA61F7D
:1044C000B71F86839783A087B1872250223050F789
:1044D000EC2FE695F0E0EE0FFF1FEE0DFF1DC0FF85
:1044E00005C08081F801838381E08583CF911F918E
:1044F0000F91FF90EF90DF90CF900895CF92DF92D1
:10450000EF92FF92CF93DF93FC0186819781A08584
:10451000B1852581222351F04381552747FD5095D0
:10452000652F752F840F951FA61FB71FAD01662736
:104530007727A070B070840F951FA61FB71F6D015D
:10454000EE24FF24C80ED91EEA1EFB1EE601C0950C
:10455000D09582818B3090F5CF016BE872E145E810
:104560005AE00E9473358DB79EB708970FB6F8943E
:104570009EBF0FBE8DBFEDB7FEB731968FE89AE0B4
:10458000ADB7BEB712969C938E931197D383C28317
:10459000C482D582E682F7820E940B4AEDB7FEB74D
:1045A00036960FB6F894FEBF0FBEEDBF8EE892E1CF
:1045B000928381830E940B4A0F900F90CE01DF916E
:1045C000CF91FF90EF90DF90CF900895EF92FF9200
:1045D0000F931F93CF93DF93EC017B010E947E2208
:1045E000182F092F8A818B30A0F5CE016BE872E17C
:1045F0004EEB5AE00E9473358DB79EB70A970FB6FF
:10460000F8949EBF0FBE8DBFEDB7FEB7319684ED17
:104610009AE0ADB7BEB712969C938E931197028322
:1046200013821483158216831782008711860E94D5
:104630000B4AEDB7FEB738960FB6F894FEBF0FBE23
:10464000EDBF8EE892E1928381830E940B4A0F9026
:104650000F90D701ED91FC910190F081E02DC70101
:10466000612F1995EC01D701ED91FC910190F0813A
:10467000E02DC701602F1995C80FD91F81E0C23006
:10468000D10509F080E0DF91CF911F910F91FF904C
:10469000EF90089508950895CB016DE573E00E94B1
:1046A000EE0E0895CB0163E673E00E94EE0E0895CE
:1046B00025E93EE0FC01318320830895CB014423AA
:1046C00019F467E673E020C0413019F461E773E044
:1046D0001BC0423019F46CE773E016C0433019F484
:1046E0006CE873E011C0443019F46FE973E00CC05A
:1046F000453019F469EB73E007C0463019F46FEDEB
:1047000073E002C06EEE73E00E94EE0E0895EF9229
:10471000FF920F931F93CF93DF937C01EB018A01EC
:10472000CB0166EF73E00E94EE0ECE01D801129627
:104730006C914AE050E00E94B645CE016DEF73E007
:104740000E94EE0ECE0160E074E00E94EE0EF801D1
:1047500063817481CE010E94EE0ECE016DEF73E095
:104760000E94EE0ECE016BE074E00E94EE0EC701D7
:10477000BE01D80115964C910E945E23CE0166E1E0
:1047800074E00E94EE0EF8018581863059F5CE0165
:1047900068E174E00E94EE0ED801ED91FC91048472
:1047A000F585E02DC8011995BC01CE014AE050E025
:1047B0000E94F745CE016DEF73E00E94EE0ECE0130
:1047C00067E274E00E94EE0ED801ED91FC91068440
:1047D000F785E02DC8011995BC01CE014AE050E0F3
:1047E0000E94F745DF91CF911F910F91FF90EF90BD
:1047F000089508950895CB0166E374E00E94EE0EDB
:104800000895CB0168E374E00E94EE0E0895CF9303
:10481000DF93EB01FC0182819381009711F00E94EC
:104820002A3BCE016CE374E00E94EE0EDF91CF9143
:104830000895FC0183EA9EE0918380837383628301
:10484000089508950895CB016FE974E00E94EE0E7B
:104850000895EF92FF920F931F93CF93DF93EB0195
:104860008A0185EAE82E84E0F82ECB01B7010E9488
:10487000EE0ED80113966D917C911497CE010E9493
:10488000EE0ECE0167EA74E00E94EE0ED801ED91C3
:10489000FC910190F081E02DC801BE011995CE0177
:1048A000B7010E94EE0EDF91CF911F910F91FF9003
:1048B000EF900895CB016BEA74E00E94EE0E08952C
:1048C00021EB3EE0FC01318320830895CF93DF93F9
:1048D000FC01DB0166817781FB01EF01099000207B
:1048E000E9F7AE01415050404E1B5F0BED91FC913A
:1048F00011970280F381E02DCD011995DF91CF91C1
:1049000008950F931F93CF93DF93EC01890120E06B
:104910000E946D288FEB9EE0998388831F830E830E
:10492000DF91CF911F910F910895CF93DF93EC0109
:104930008C539F4F9D8F8C8FDC01ED91FC910280F9
:10494000F381E02D1995CE018F519F4F0E940E38B3
:10495000CD50DF4F1882DF91CF9108953F924F9253
:104960005F926F927F928F929F92AF92BF92CF92FF
:10497000DF92EF92FF920F931F93CF93DF93CDB708
:10498000DEB760970FB6F894DEBF0FBECDBF3C0117
:104990007A836983342E3C832B83B88AAF86982C24
:1049A00062E37BE00E94683593012C5F3F4F3887BC
:1049B0002F83C9016FEFA70120E00E946D28C3017A
:1049C0000E969A8789876FEFA60120E00E946D28D6
:1049D00081E29FE0F301918F808F9301225E3F4F30
:1049E0003E832D8368E1462E512C460C571CC9018D
:1049F000B2010E94812AC301CF969C878B878824AD
:104A000083948924B2014B815C819801082DEAA42A
:104A1000FBA40E94CA29A4E6AA2EB12CA60CB71C9E
:104A2000C501B20148E853E12FA138A509A50E94AC
:104A30006130F301E358FF4FFC83EB83BEEFEB2EB5
:104A4000E30CCF01B20148E853E120E038E20981EC
:104A50001A81CDA0DEA00E940330930128563F4F5B
:104A60003E872D8700D08CA59DA5EDB7FEB792831C
:104A700081838EA583838D859E85B2014D815E8164
:104A80002B813C810B851C85E980FA80C32CAF8487
:104A9000B8880E94F4310F900F900F90C3018C538F
:104AA0009F4FB2014D815E812D853E850E946F2E04
:104AB00083010F511F4FC8010E94F637F301938203
:104AC0002F8138853387228789859A85958B848BBA
:104AD000832D90E0FC013297EE0FFF1F29813A8170
:104AE000E20FF31F9301265F3F4F31832083FC01C8
:104AF0003197EE0FFF1F89819A81E80FF91FC301DB
:104B0000449691838083F301538E428EEF50FF4F82
:104B100011830083C3010E94952460960FB6F89418
:104B2000DEBF0FBECDBFDF91CF911F910F91FF90E0
:104B3000EF90DF90CF90BF90AF909F908F907F903D
:104B40006F905F904F903F9008952F923F925F92A9
:104B50006F927F928F929F92AF92BF92CF92DF928D
:104B6000EF92FF920F931F93CF93DF93EC018B0192
:104B70008A818B3050F5CE016BE872E14DE35BE04A
:104B80000E9473358C8D9D8DDC01ED91FC9101901F
:104B9000F081E02D199500D00F922BE43BE0EDB7AA
:104BA000FEB732832183948383830E940B4A0F9044
:104BB0000F908EE892E1ADB7BEB712969C938E939C
:104BC00011970E940B4A0F900F9021EE822E912C8C
:104BD0008C0E9D1EC401B8010E940A388B81882367
:104BE00009F417C113EFC12ED12CCC0EDD1E04EF3A
:104BF000602E712C6C0E7D1E81EF282E312C2C0E18
:104C00003D1E9EE8A92E92E1B92E55245394F6013B
:104C10008081882309F442C20E94AD46DC01CB01A9
:104C2000F3014081518162817381841B950BA60B36
:104C3000B70B8939FAE39F07F0E0AF07F0E0BF0751
:104C400008F42CC28A818F3108F075C1CE0165E865
:104C500072E14DE35BE00E9473350F920F9283E7A0
:104C60009BE015C18A818F3108F065C1CE0165E8EE
:104C700072E14DE35BE00E9473350F920F9289E978
:104C80009BE005C18C8D9D8DDC01ED91FC91D101E6
:104C90006D917C910480F581E02D19958C012A811C
:104CA000009709F48AC08A8D9B8D08171907C1F4F3
:104CB0002F3108F040C1CE0165E872E14DE35BE0C1
:104CC0000E9473358C8D9D8DDC01ED91FC910190DE
:104CD000F081E02D199500D00F9226ED3BE015C133
:104CE0002B30D0F5CE016BE872E14DE35BE00E9422
:104CF00073358C8D9D8DDC01ED91FC910190F081DF
:104D0000E02D19957C01D801ED91FC910190F08185
:104D1000E02DC801199500D000D0EDB7FEB731964F
:104D20002EE53CE0ADB7BEB712963C932E9311979B
:104D3000F382E282958384830E940B4A0F900F9046
:104D40000F900F90ADB7BEB71296BC92AE9211976E
:104D50000E940B4A0F900F901D8F0C8FD801ED9180
:104D6000FC910280F381E02DC8011995F601808144
:104D7000882309F04CCF50820E94AD46DC01CB0164
:104D8000F30180839183A283B3838A81853108F004
:104D90003ECFCE0168E872E14DE35BE00E947335DF
:104DA0000F920F92EEE9FCE0ADB7BEB71296FC93FE
:104DB000EE9311970E940B4A21C02B3008F027CFA9
:104DC000CE016BE872E14DE35BE00E9473358C8DA0
:104DD0009D8DDC01ED91FC910190F081E02D199504
:104DE00000D00F9221EB3CE0EDB7FEB73283218378
:104DF000948383830E940B4A0F900F90ADB7BEB788
:104E00001296BC92AE9211970E940B4A0F900F908F
:104E1000FECEFE01ED50FF4F8081882309F447C18B
:104E20000E94AD46DC01CB01FE01EC50FF4F4081FA
:104E3000518162817381841B950BA60BB70B893955
:104E4000EAE39E07E0E0AE07E0E0BE0708F42FC10A
:104E50008A818F3108F06FC0CE0165E872E14DE3C1
:104E60005BE00E9473350F920F928DEF9CE00FC0B4
:104E70008A818F3108F05FC0CE0165E872E14DE3B1
:104E80005BE00E9473350F920F9283E29DE0ADB715
:104E9000BEB712969C938E9311970E940B4A8EE890
:104EA00092E1EDB7FEB79283818341C08C8D9D8DD9
:104EB000FC01A081B181FE01EF50FF4F6081718143
:104EC0001496ED91FC91159719958C012A81009704
:104ED00009F4A5C08A8D9B8D0817190789F52F3114
:104EE00050F5CE0165E872E14DE35BE00E94733559
:104EF0008C8D9D8DDC01ED91FC910190F081E02D78
:104F0000199500D00F9220E63DE0EDB7FEB7328351
:104F10002183948383830E940B4A0F900F908EE825
:104F200092E1ADB7BEB712969C938E9311970E94F3
:104F30000B4A0F900F90CE010E94952481E09CC0F7
:104F40002B30D0F5CE016BE872E14DE35BE00E94BF
:104F500073358C8D9D8DDC01ED91FC910190F0817C
:104F6000E02D19957C01D801ED91FC910190F08123
:104F7000E02DC801199500D000D0EDB7FEB73196ED
:104F800028EE3DE0ADB7BEB712963C932E93119735
:104F9000F382E282958384830E940B4A0F900F90E4
:104FA0000F900F908EE892E1EDB7FEB79283818368
:104FB0000E940B4A0F900F901D8F0C8FD801ED911E
:104FC000FC910280F381E02DC8011995FE01ED509E
:104FD000FF4F8081882309F04EC081E080830E94CA
:104FE000AD46DC01CB01FE01EC50FF4F8083918385
:104FF000A283B3838A818B30F0F5CE016BE872E136
:105000004DE35BE00E9473350F920F9288E29EE0C1
:10501000EDB7FEB7928381830E940B4A20C02B30EC
:1050200050F5CE016BE872E14DE35BE00E94733511
:105030008C8D9D8DDC01ED91FC910190F081E02D36
:10504000199500D00F922BE33EE0EDB7FEB7328307
:105050002183948383830E940B4A0F900F908EE8E4
:1050600092E1ADB7BEB712969C938E9311970E94B2
:105070000B4A0F900F9080E0DF91CF911F910F911D
:10508000FF90EF90DF90CF90BF90AF909F908F9068
:105090007F906F905F903F902F900895C4010E9481
:1050A0001238B8E281309B0708F4ECCDDBCDC401A7
:1050B0000E941238E8E281309E0708F0D9CEF6CE81
:1050C0000895089580E0089508950895089580E072
:1050D00090E0089581E090E00895FC0183ED9EE06A
:1050E00091838083628354834383258308958FEA69
:1050F00094E00895FC0114860895CF92DF92EF9218
:10510000FF920F931F93CF93DF938C016B01DC0110
:105110001D968C911D97882329F415968D919C914D
:1051200016972FC1E8018C818B3008F04BC0C80165
:1051300002966BE872E148E15FE00E9473358C856E
:10514000EDB7FEB738970FB6F894FEBF0FBEEDBFB0
:10515000ADB7BEB7119627E23FE0CDB7DEB73A83D1
:10516000298312968C93129713961C92139790E0B2
:10517000880F991F880F991FE801E889F989E80FBE
:10518000F91F0190F081E02D8381948115969C9305
:105190008E9314978A8916968C93169717961C925D
:1051A0000E940B4AEDB7FEB736960FB6F894FEBFD5
:1051B0000FBEEDBF8EE892E1928381830E940B4A7D
:1051C0000F900F90D8011C968C911C97882319F58D
:1051D00053968D919C915497EC01E881F98101904F
:1051E000F081E02DB6011995E8016596CE01B60172
:1051F0000E941337CE010E941737F80183899489E2
:10520000DC01ED91FC910280F381E02DBE01199546
:10521000CE010E947237E8019C858A89981708F0B0
:105220008BC08B899C8925E1E22EF12CE00EF11ECA
:10523000DC01ED91FC910480F581E02DB701199519
:105240008C8590E0880F991F880F991FE889F9894C
:10525000E80FF91F228133818E85882331F48F85F1
:10526000882331F082E090E005C084E090E002C045
:1052700080E090E0820F931FFC01C081D181E88122
:10528000F9810190F081E02DCE01B7011995D80187
:105290001C968C911C972881398190E0880F991F6A
:1052A000880F991F5096ED91FC915197E80FF91FC7
:1052B00040815181D9011496ED91FC911597CE0151
:1052C000B7011995E881F9810280F381E02DCE01C3
:1052D000B7011995F80184852881398190E0880FFC
:1052E000991F880F991F0088F189E02DE80FF91F99
:1052F00040815181D9011696ED91FC911797CE010D
:10530000B7011995E881F9810084F185E02DCE017E
:10531000B7011995E8018B899C89DC01ED91FC911D
:105320000680F781E02DB7011995C80145960E94C6
:1053300072378C858F5F8C87E8019C858A899817E6
:10534000F0F08B899C89DC01ED91FC9165960084DD
:10535000F185E02DBE011995CE010E948E37E8013E
:105360008B85882341F0D601ED91FC910680F78171
:10537000E02DC6011995E8018D819E8102C080E073
:1053800090E0DF91CF911F910F91FF90EF90DF9010
:10539000CF9008958F929F92AF92BF92CF92DF925B
:1053A000EF92FF920F93CF93DF93EC015B014A01E1
:1053B000690127EE3EE0FC0121933193CF0167E8BC
:1053C0007EE00E946835CE014596B70140E050E08E
:1053D0000E942037BE82AD8298868F82DA86C98687
:1053E0000B87DF91CF910F91FF90EF90DF90CF90DF
:1053F000BF90AF909F908F900895EF920F931F935F
:10540000CF93DF93EC016D874F872E87198B088B25
:10541000EA8A222311F081E08F878C818B30C8F5D6
:10542000CE0102966BE872E14BE95EE00E947335B3
:105430008DB79EB70A970FB6F8949EBF0FBE8DBF6B
:10544000EDB7FEB7319683EA9EE0ADB7BEB71296D0
:105450009C938E9311978D85828313828F8584838D
:1054600015828E85868317828A89808711860E949D
:105470000B4AEDB7FEB738960FB6F894FEBF0FBED5
:10548000EDBF8EE892E1928381830E940B4A0F90D8
:105490000F908F85882319F089859A8502C08F81A6
:1054A00098859C8B8B8BDF91CF911F910F91EF9003
:1054B000089585EC94E0089508950F931F93CF937A
:1054C000DF93EC018C01075F1F4FC8010E94193B5D
:1054D000C8010E94A9390097D9F32FEF8F3F920797
:1054E00049F08130910519F48F81988505C08D812F
:1054F0009E8102C080E090E0DF91CF911F910F91DB
:1055000008950F931F93CF93DF93EC018B0121EF4D
:105510003EE0FC0121933193CF0160E97FE00E94DE
:105520006835CE0109960E94F93A1E830D83DF91FA
:10553000CF911F910F910895FC0130872783099621
:105540000E94233B0895FC015087478309960E94DF
:105550001D3B0895CB0165EE74E00E94EE0E0895A8
:10556000CF93DF93EC01CB012F81222319F06BEE57
:1055700074E002C062E175E00E94EE0E8F8191E05E
:1055800089278F83DF91CF910895CF93DF93D62F13
:10559000C72F862F972F67E175E00E94EE0E8D2FA3
:1055A0009C2F66E475E00E94EE0EDF91CF91089586
:1055B000CF93DF93EB01FC0185819681009711F079
:1055C0000E942A3BCE0160E476E00E94EE0EDF915D
:1055D000CF910895FC018BEF9EE0918380837383CC
:1055E000628344833683258381E087830895BF9255
:1055F000CF92DF92EF92FF920F931F93CF93DF939F
:105600007C01162F072FB42EC0E0D0E0CC24DD247F
:1056100033C0D70112968D919C9113978C0F9D1FCB
:10562000DC01ED91FC9111970190F081E02D8581D5
:10563000BB2019F08823E1F402C08823C9F0812F30
:10564000902F6CE976E00E94EE0ED7011296ED9154
:10565000FC911397EC0FFD1F0190F081E02D01905C
:10566000F081E02D63817481812F902F0E94EE0ED6
:105670000894C11CD11C2296F701848190E0029706
:10568000C816D90630F2DF91CF911F910F91FF908C
:10569000EF90DF90CF90BF900895AF92BF92CF92DE
:1056A000DF92EF92FF920F931F93CF93DF938C01C2
:1056B000EB01CB016EE976E00E94EE0ECE0168E0D0
:1056C00077E00E94EE0ECE0162E277E00E94EE0EDD
:1056D0008DE3E82E87E0F82ECE01B7010E94EE0E92
:1056E000C801BE0141E00E94F72A27E4A22E27E06C
:1056F000B22ECE01B5010E94EE0ECE01B7010E947E
:10570000EE0EC801BE0140E00E94F72ACE016EE510
:1057100077E00E94EE0ECE0162E877E00E94EE0E86
:105720003EE9E32E37E0F32ECE01B7010E94EE0EE4
:10573000C801BE0141E00E94F72ACE01B5010E94D6
:10574000EE0ECE01B7010E94EE0EC801BE0140E090
:105750000E94F72A4AEAC42E47E0D42ECE01B601B1
:105760000E94EE0ECE016CEB77E00E94EE0ECE01B1
:105770006EED77E00E94EE0E5AEFE52E57E0F52E23
:10578000CE01B7010E94EE0EC801BE0141E00E94A9
:10579000F72ACE01B5010E94EE0ECE01B7010E949C
:1057A000EE0EC801BE0140E00E94F72ACE01B6010C
:1057B0000E94EE0ECE0166E078E00E94EE0ECE0171
:1057C0006DE078E00E94EE0ECE016FE678E00E9478
:1057D000EE0E0FE219E0CE01B8010E94EE0ECE01EE
:1057E00066E379E00E94EE0ECE01B8010E94EE0E53
:1057F000CE0162EC79E00E94EE0EDF91CF911F9115
:105800000F91FF90EF90DF90CF90BF90AF900895F1
:10581000EF92FF920F931F93CF93DF938C017B0145
:10582000CB0167E67AE00E94EE0EC6E0D8E0C70141
:10583000BE010E94EE0EC801B7010E944D2BC701A8
:10584000BE010E94EE0EC70160E77AE00E94EE0EF4
:10585000C70161EE7AE00E94EE0EDF91CF911F91B9
:105860000F91FF90EF900895089508950895DF92A5
:10587000EF92FF920F931F93CF93DF937C01EB0185
:105880008A01CB016FE07BE00E94EE0ED8011596F5
:105890008C911597882321F4CE0164E17BE084C1CB
:1058A000813069F4D801ED91FC910280F381E02D03
:1058B000C801BE01D70112964C91199577C182306B
:1058C00061F5CE016BE17BE00E94EE0EF701828173
:1058D000882319F060EF7AE002C064EF7AE0CE012D
:1058E0000E94EE0ECE016CE47BE00E94EE0ECE0133
:1058F0006FE47BE00E94EE0ED80113966D917C91CF
:105900001497CE010E94EE0ECE0169E67BE00E9464
:10591000EE0ECE016EE67BE047C1833009F04DC04C
:10592000D801ED91FC910480F581E02DC801199515
:10593000D82ECE016BE17BE00E94EE0EF701828152
:10594000882319F060EF7AE002C064EF7AE0CE01BC
:105950000E94EE0ECE016CE47BE00E94EE0ECE01C2
:1059600065EA7BE00E94EE0ED80113966D917C9162
:105970001497CE010E94EE0ECE0161EC7BE00E94F6
:10598000EE0EDD2019F069EF7AE002C06BEF7AE0ED
:10599000CE010E94EE0ECE0169E67BE00E94EE0E83
:1059A000CE016BEC7BE00E94EE0EDD2019F06DEF76
:1059B0007AE052C063E07BE04FC0843009F05DC004
:1059C000D801ED91FC910480F581E02DC801199575
:1059D000D82ECE016BE17BE00E94EE0EF7018281B2
:1059E000882319F060EF7AE002C064EF7AE0CE011C
:1059F0000E94EE0ECE016CE47BE00E94EE0ECE0122
:105A000065EA7BE00E94EE0ED80113966D917C91C1
:105A10001497CE010E94EE0ECE0161EC7BE00E9455
:105A2000EE0EDD2019F069EF7AE002C06BEF7AE04C
:105A3000CE010E94EE0ECE0169E67BE00E94EE0EE2
:105A4000CE016BEC7BE00E94EE0EDD2019F068E0E9
:105A50007BE002C06CE07BE0CE010E94EE0ECE0146
:105A600068EE7BE00E94EE0ECE016AEE7BE00E94C3
:105A7000EE0ECE016EEE7BE097C0863009F057C087
:105A8000CE016BE17BE00E94EE0EF701828188235C
:105A900019F060EF7AE002C064EF7AE0CE010E9474
:105AA000EE0ECE016CE47BE00E94EE0ECE016FE4C0
:105AB0007BE00E94EE0ED80113966D917C911497B5
:105AC000CE010E94EE0ECE0169E67BE00E94EE0E52
:105AD000CE016EE67BE00E94EE0ECE0166EF7BE02B
