:100000000C94E3000C940B010C940B010C940B0169
:100010000C940B010C940B010C940B010C940B0130
:100020000C940B010C940B010C940B010C940B0120
:100030000C940B010C940B010C940B010C940B0110
:100040000C9408080C940B010C94AA040C94E6047C
:100050000C940B010C940B010C940B010C940B01F0
:100060000C940B010C940B0100000007000201002E
:100070000003040600000000000000000102040864
:100080001020408001020408102001020408102002
:10009000040404040404040402020202020203032E
:1000A00003030303000000002300260029000000D2
:1000B0000000250028002B0000000000240027007D
:1000C0002A00005EBCE2613FDD83C29C7E20A3FD6E
:1000D0001F419DC3217FFCA2401E5F01E3BD3E6026
:1000E00082DC237D9FC1421CFEA0E1BF5D0380DE58
:1000F0003C62BEE0025CDF81633D7C22C09E1D430A
:10010000A1FF4618FAA427799BC584DA3866E5BBB7
:100110005907DB856739BAE406581947A5FB7826E5
:10012000C49A653BD987045AB8E6A7F91B45C69817
:100130007A24F8A6441A99C7257B3A6486D85B05C9
:10014000E7B98CD2306EEDB3510F4E10F2AC2F7177
:1001500093CD114FADF3702ECC92D38D6F31B2ECA5
:100160000E50AFF1134DCE90722C6D33D18F0C52D7
:10017000B0EE326C8ED0530DEFB1F0AE4C1291CF89
:100180002D73CA947628ABF517490856B4EA693737
:10019000D58B5709EBB536688AD495CB2977F4AA65
:1001A0004816E9B7550B88D6346A2B7597C94A1497
:1001B000F6A8742AC896154BA9F7B6E80A54D78949
:1001C0006B35B105180F11241FBECFEFD8E0DEBF8D
:1001D000CDBF14E0A0E0B1E0E6E8F8E402C005908D
:1001E0000D92A23CB107D9F717E0A2ECB4E001C030
:1001F0001D92AA3CB107E1F711E0C6ECD1E004C0C2
:100200002297FE010E940E23C23CD107C9F70E942B
:10021000F5070C9441240C9400008091C204909145
:10022000C3040E94F11B0895CF92DF92EF92FF92D8
:100230000F931F93CF93DF93EC016A017B010E8133
:100240001F8186E090E00E941223FC019F838E8331
:10025000009709F588819981009721F060E071E0AD
:100260000E9443068DE061E00E942C098DE061E070
:100270000E944D096AEF70E080E090E00E948E08D5
:100280008DE060E00E944D096AEF70E080E090E050
:100290000E948E08EBCF15821482C082D182E28246
:1002A000F3828C819D81009719F4FD83EC8305C056
:1002B000D8011596FC93EE9314978A819B81019641
:1002C0009B838A83DF91CF911F910F91FF90EF90D5
:1002D000DF90CF900895AF92BF92CF92DF92EF92CE
:1002E000FF920F931F93CF93DF93CDB7DEB72D9778
:1002F0000FB6F894DEBF0FBECDBF7C015B0181E07D
:100300000E94FC08FE013196AEE9B1E08DE00D904F
:1003100001928150E1F7C701BE016F5F7F4F0E94DC
:100320001606C70161E371E00E941606C7010E942C
:100330002F068AE061E00E942C0984E795E06AE0DC
:100340000E94EE0E882351F4C701BE016F5F7F4FFC
:100350000E941606C7016FE471E009C0C701BE0123
:100360006F5F7F4F0E941606C70160E771E00E9431
:100370001606C7010E942F06C701BE016F5F7F4F9F
:100380000E941606C70162E871E00E941606C701C6
:100390000E942F0688E090E00E9402088C01FC0178
:1003A00013821282158214821782168211821082A1
:1003B00048EE53E060E070E00E9414018DE090E0B0
:1003C0000E9402086C01B80141E021E00E942B1D4F
:1003D00080E190E00E9402088C01B501A7010E9413
:1003E00056038091C2049091C30461E041E09601FC
:1003F0000E949B1A2D960FB6F894DEBF0FBECDBF9C
:10040000DF91CF911F910F91FF90EF90DF90CF90F0
:10041000BF90AF900895CF92DF92EF92FF920F932B
:100420001F93CF93DF93CDB7DEB729970FB6F8941C
:10043000DEBF0FBECDBF84EC94E040E855E260E043
:1004400070E00E942D05DE011196E6EEF1E089E0F4
:1004500001900D928150E1F78EE090E00E94020839
:100460006C0162E00E94200E84EC94E0BE016F5F9C
:100470007F4F0E94160684EC94E06BEA71E00E94C4
:10048000430660ED77E080E090E00E948E0884EC07
:1004900094E0BE016F5F7F4F0E94160684EC94E0EB
:1004A00061EC71E00E94160684EC94E00E942F0635
:1004B00084EC94E0BE016F5F7F4F0E94160684ECCF
:1004C00094E067EC71E00E9416060E94E703BC010D
:1004D00084EC94E04AE050E00E94150784EC94E03C
:1004E0000E942F0684EC94E0BE016F5F7F4F0E9454
:1004F000160684EC94E068ED71E00E9416060E94F6
:100500005208AB01BC0184EC94E02AE030E00E9488
:10051000C50684EC94E00E942F0684EC94E0BE01B2
:100520006F5F7F4F0E94160684EC94E06BEA71E0E7
:100530000E94430684E290E00E9402087C0164EC81
:1005400074E020E137E240E050E00E94581E80E174
:1005500090E00E9402088C01B7010E94D619109306
:10056000C3040093C20484EC94E0B6010E946B01C2
:1005700084EC94E0BE016F5F7F4F0E94160684EC0E
:1005800094E067EC71E00E9416060E94E703BC014C
:1005900084EC94E04AE050E00E94150784EC94E07B
:1005A0000E942F0684EC94E0BE016F5F7F4F0E9493
:1005B000160684EC94E068ED71E00E9416060E9435
:1005C0005208AB01BC0184EC94E02AE030E00E94C8
:1005D000C50684EC94E00E942F0684EC94E0BE01F2
:1005E0006F5F7F4F0E94160684EC94E062EE71E02C
:1005F0000E94160684EC94E00E942F0684EC94E09E
:100600006BEA71E00E94430629960FB6F894DEBFAC
:100610000FBECDBFDF91CF911F910F91FF90EF9053
:10062000DF90CF9008952FE334E0FC0131832083E5
:100630000E94DA0E0895CF93DF93EC018FE394E0EC
:1006400099838883CE010E94DA0ECE010E940508AC
:10065000DF91CF9108950F931F93CF93DF93EC0118
:100660008E819F810E94E30B0A811B81C80165E492
:1006700074E00E941606BE01685F7F4F8E819F81E5
:100680000E94AA0CAB01BC01C80122E030E00E942C
:10069000F207C8016FEE71E00E941606C8010E94C1
:1006A0002F06DF91CF911F910F910895EF92FF9246
:1006B0000F931F93CF93DF938C017B01EA010E947C
:1006C000E80E8FE394E0F80191838083D383C283A3
:1006D000F582E48283E190E00E940208EC01F801D7
:1006E000648175810E948509F801D783C68384ECF3
:1006F00094E063EF71E00E941606F801868197810D
:100700000E94070B84EC94E067E072E00E941606FA
:10071000F801868197810E949409682F84EC94E007
:100720004AE050E00E94D40684EC94E06EE072E06F
:100730000E94430684EC94E068E172E00E94160691
:10074000F801868197810E94E20C882329F084ECCD
:1007500094E06CE272E004C084EC94E06FE272E03A
:100760000E94430688E2F80180878CE0818788EF49
:10077000828785E5838783E084871586168686E4ED
:100780008787E801289686819781BE0149E00E940B
:100790008E0A84EC94E063E372E00E941606F8018E
:1007A00086819781BE010E94D40A682F84EC94E070
:1007B0004AE050E00E94D40684EC94E00E942F06A8
:1007C000DF91CF911F910F91FF90EF900895CF93FC
:1007D000DF9300D0CDB7DEB78091C6079091C707F1
:1007E0009E012F5F3F4F009719F42A5C374002C0EB
:1007F000281B390B3A83298389819A810F900F90A6
:10080000DF91CF910895FC0124853585F901E05CE5
:10081000FF4F808191812E5B3F4FF9012081318113
:10082000821B930B8F7390700895FC01448555854E
:10083000FA01E05CFF4F80819181FA01EE5BFF4F8E
:10084000208131818217930741F00190F081E02DE2
:10085000E40FF51F808190E008958FEF9FEF0895DA
:10086000FC0144855585FA01E05CFF4F2081318110
:10087000FA01EE5BFF4F808191812817390779F0EB
:10088000A081B181A40FB51F8C91208131812F5F90
:100890003F4F2F7330703183208390E008958FEFA6
:1008A0009FEF0895DC011E96ED91FC911F97DF01EB
:1008B000A05CBF4FEE5BFF4F2D913C911197808163
:1008C000918128173907C1F70895EF92FF920F938E
:1008D0001F93CF93DF93EC01262F0E851F8530E405
:1008E000E32EF12CE00EF11ED7018D919C91119712
:1008F000019660E470E00E94C322AC01F801EE5B57
:10090000FF4F8081918148175907D9F3D701ED91A5
:10091000FC911197E00FF11F2083EE85FF85E05CCD
:10092000FF4F51834083EE89FF89208181E090E071
:100930000D8C02C0880F991F0A94E2F7282B2083A0
:1009400081E090E0DF91CF911F910F91FF90EF90A8
:10095000089508951F920F920FB60F9211242F93AE
:100960003F934F938F939F93EF93FF934091C600D4
:10097000809167059091680501968F739070209122
:10098000690530916A058217930759F0E091670570
:10099000F0916805E95DFA4F408390936805809374
:1009A0006705FF91EF919F918F914F913F912F910B
:1009B0000F900FBE0F901F90189584EC94E00E944A
:1009C0000304009711F00E94A90408951F920F924A
:1009D0000FB60F9211242F933F935F936F937F93E2
:1009E0008F939F93AF93BF93EF93FF932091230532
:1009F0003091240580912505909126052817390707
:100A000031F48091C1008F7D8093C10016C0E091C8
:100A10002505F0912605ED51FB4F2081809125059C
:100A200090912605019660E470E00E94C3229093A5
:100A30002605809325052093C600FF91EF91BF9175
:100A4000AF919F918F917F916F915F913F912F9186
:100A50000F900FBE0F901F901895BF92CF92DF920C
:100A6000EF92FF920F931F93CF93DF93EC016A01F4
:100A70007B01BB24B394403081EE580780E06807C7
:100A800080E0780749F4BB24EC89FD89108260E896
:100A900074E88EE190E00FC0EC89FD8981E090E080
:100AA0000E8C02C0880F991F0A94E2F7808360E0E1
:100AB00079E08DE390E0A70196010E94D62289019A
:100AC0009A010150104020403040369527951795E7
:100AD000079580E10030180710F0BB20A1F6E889E7
:100AE000F9891083EA89FB890083EE89FF894081B7
:100AF00021E030E0C9010A8C02C0880F991F0A94D6
:100B0000E2F7482B4083EE89FF894081C9010B8CB5
:100B100002C0880F991F0A94E2F7482B4083EE89A0
:100B2000FF894081C9010C8C02C0880F991F0A946B
:100B3000E2F7482B4083EE89FF8980810D8C02C04B
:100B4000220F331F0A94E2F7209528232083DF9198
:100B5000CF911F910F91FF90EF90DF90CF90BF90BA
:100B600008951092C7041092C60488EE93E0A0E0A6
:100B7000B0E08093C8049093C904A093CA04B093D2
:100B8000CB04E6ECF4E082E594E09293829387E272
:100B900095E09587848783EE94E09787868785EC38
:100BA00090E0918B808B84EC90E0938B828B80EC37
:100BB00090E0958B848B81EC90E0978B868B86EC14
:100BC00090E0918F808F84E0828F83E0838F87E035
:100BD000848F85E0858F81E0868F0895CF92DF92A4
:100BE000EF92FF920F931F93CF93DF936C017B01E2
:100BF000EA0100E010E00EC0D7016D917D01D60141
:100C0000ED91FC910190F081E02DC6010995080F4E
:100C1000191F2197209781F7C801DF91CF911F916C
:100C20000F91FF90EF90DF90CF900895DB010D9032
:100C30000020E9F7AD0141505040461B570BDC0145
:100C4000ED91FC910280F381E02D09950895DC017E
:100C5000ED91FC910190F081E02D099508950F939D
:100C60001F93CF93DF938C016DE00E942706EC0168
:100C7000C8016AE00E9427068C0F9D1FDF91CF916B
:100C80001F910F9108950F931F93CF93DF938C01C2
:100C90000E941606EC01C8010E942F068C0F9D1FB2
:100CA000DF91CF911F910F9108956F927F928F9254
:100CB0009F92AF92BF92CF92DF92EF92FF920F93EB
:100CC0001F93CF93DF93CDB7DEB7A1970FB6F894FC
:100CD000DEBF0FBECDBF3C01E42ECB01F22E19A228
:100CE00021E02F1510F03AE0F32E21E2C22ED12C94
:100CF000CC0EDD1E8F2C9924AA24BB2403C0E02E29
:100D0000512FC9016E2D752FA50194010E94D62285
:100D100089019A01F09E802D1124E81A8E2D0894E5
:100D2000C108D1088A3014F4805D01C0895CD60105
:100D30008C93011511052105310509F7D6010D9098
:100D40000020E9F7AD01415050404C195D09D30135
:100D5000ED91FC910280F381E02DC301B60109956C
:100D6000A1960FB6F894DEBF0FBECDBFDF91CF9135
:100D70001F910F91FF90EF90DF90CF90BF90AF90B9
:100D80009F908F907F906F9008952115310549F4C1
:100D9000DC01ED91FC910190F081E02D642F09952B
:100DA00008950E94550608959A01462F50E060E08C
:100DB00070E00E94C5060895CF92DF92EF92FF92F5
:100DC0000F931F93CF93DF93EC016A017B012115F1
:100DD000310541F4E881F9810190F081E02D642F23
:100DE00009951AC02A303105A9F477FF12C06DE2C7
:100DF0000E9427068C0144275527BA014C195D092A
:100E00006E097F09CE012AE00E945506800F911FCE
:100E100003C02AE00E945506DF91CF911F910F91E8
:100E2000FF90EF90DF90CF9008959A01FB01AF0102
:100E3000662757FD6095762F0E94DC0608956F9215
:100E40007F929F92AF92BF92CF92DF92EF92FF92EA
:100E50000F931F93CF93DF933C016A017B01922E86
:100E6000CB01BA0120E030E040E050E00E94F220E7
:100E700087FF0AC0C3016DE20E9427065C01F7FAF2
:100E8000F094F7F8F09402C0AA24BB24C0E050E02C
:100E900040E030E02FE313C0FA01B9018F2F942F07
:100EA000A72FB22FBC01CD0120E030E040E251E499
:100EB0000E94F620562F472F382F292FCF5FC915B4
:100EC00059F7C701B601DA01F9010B2F142F2F2FA3
:100ED0003E2FA90198010E948E20D62EE72EF82ED3
:100EE000192F862F9E2DAF2DB12FBC01CD010E9451
:100EF0006321C62E072FEC010E948F219B01AC01BC
:100F00008D2D9E2DAF2DB12FBC01CD010E948D20C6
:100F1000D62EE72EF82E192FC3014C2D502FBE01CF
:100F20002AE030E00E94C506EC01CA0DDB1D9920C5
:100F300009F446C0C30169E472E00E941606C80FB6
:100F4000D91F3EC08D2D9E2DAF2DB12FBC01CD01DF
:100F500020E030E040E251E40E944122162F072FAA
:100F6000B82EA92EA8019501852F942FA32FB22F5B
:100F7000BC01CD010E945E216B017C01EE24D7FCF7
:100F8000E094FE2CC301B701A6012AE030E00E94E4
:100F9000DC06C80FD91FC701B6010E9491219B0131
:100FA000AC01F801B5018F2F9E2FA72FB62FBC01E2
:100FB000CD010E948D20D62EE72EF82E192F9A945F
:100FC000992009F0BFCFCE01DF91CF911F910F91F2
:100FD000FF90EF90DF90CF90BF90AF909F907F9069
:100FE0006F9008950E941F0708950E94C1080E94F3
:100FF0000B02CDEDD4E00E940D012097E1F30E9499
:10100000DD04F9CF0E94122308950E94A8230895B9
:101010001F920F920FB60F9211242F933F938F932D
:101020009F93AF93BF9380916B0590916C05A091B6
:101030006D05B0916E0530917305232F2D5F2D370F
:1010400020F40196A11DB11D05C0232F2A57029639
:10105000A11DB11D2093730580936B0590936C05C2
:10106000A0936D05B0936E0580916F05909170050A
:10107000A0917105B09172050196A11DB11D8093DB
:101080006F0590937005A0937105B0937205BF91A1
:10109000AF919F918F913F912F910F900FBE0F9025
:1010A0001F9018950F931F938FB7F89400916B05BD
:1010B00010916C0520916D0530916E058FBFB801C0
:1010C000C9011F910F9108950F931F939FB7F89433
:1010D00000916F0510917005209171053091720596
:1010E00086B5A89B06C08F3F21F00F5F1F4F2F4F83
:1010F0003F4F9FBF322F212F102F0027080F111DA8
:10110000211D311D42E0000F111F221F331F4A9580
:10111000D1F7B801C9011F910F910895CF92DF92C5
:10112000EF92FF92CF93DF936B017C010E946408E2
:10113000DC01CB01EC010FC00E9464086C1B7D0B2D
:1011400083E0683E780738F00894C108D108E108C8
:10115000F108C851DC4FC114D104E104F10461F776
:10116000DF91CF91FF90EF90DF90CF90089501979E
:1011700039F0880F991F880F991F02970197F1F78F
:101180000895789484B5826084BD84B5816084BDFF
:1011900085B5826085BD85B5816085BDEEE6F0E0F0
:1011A000808181608083E1E8F0E01082808182604C
:1011B0008083808181608083E0E8F0E080818160CD
:1011C0008083E1EBF0E0808184608083E0EBF0E0FD
:1011D000808181608083EAE7F0E0808184608083A1
:1011E000808182608083808181608083808180684B
:1011F00080831092C100089580933604089583304F
:1012000071F0843028F48130A1F0823021F514C0CF
:101210008630B1F08730D1F08430E9F404C0809199
:1012200080008F7703C0809180008F7D8093800045
:10123000089584B58F7702C084B58F7D84BD0895ED
:101240008091B0008F778093B00008958091B000B6
:101250008F7D8093B000089590E0FC01E458FF4F2B
:101260002491FC01E057FF4FE491EE23A9F0F0E058
:10127000EE0FFF1FE854FF4F85919491DC019FB75B
:10128000F8948C91662329F4209582238C939FBF38
:101290000895822B8C939FBF08950F931F93CF9334
:1012A000DF930F92CDB7DEB7282F30E0F901E85970
:1012B000FF4F8491F901E458FF4F1491F901E05771
:1012C000FF4F04910023D1F0882321F069830E940D
:1012D000FF086981E02FF0E0EE0FFF1FE255FF4F9E
:1012E00085919491DC019FB7F8948C91662319F451
:1012F0001095812301C0812B8C939FBF0F90DF91AC
:10130000CF911F910F9108950895FC0184E899E011
:10131000928B818B768365831482108289E081832E
:1013200081E0828383830895FC0184810895CF93B3
:10133000DF93EB01CB0167E00E94CC0E91E02F819F
:10134000821390E0892FDF91CF910895EF92FF9261
:101350000F931F93CF93DF93EC017B018A018D8163
:101360009E810E94E50C8D819E81B7010E94DF0D58
:101370008D819E816EEB40E00E947F0D8D819E816C
:101380000E94C30DF80180838D819E810E94C30D50
:10139000F80181838D819E810E94C30DF8018283B3
:1013A0008D819E810E94C30DF80183838D819E8172
:1013B0000E94C30DF80184838D819E810E94C30D1C
:1013C000F80185838D819E810E94C30DF80186837B
:1013D0008D819E810E94C30DF80187838D819E813E
:1013E0000E94C30DF80180878D819E810E94E50CCB
:1013F000DF91CF911F910F91FF90EF900895CF93C0
:10140000DF93EA010E94A609CE0168E00E94CC0E9B
:1014100091E02885821390E0892FDF91CF91089584
:10142000EF92FF920F931F93CF93DF938C01EB0109
:101430007A01FC01858196810E94E50CF801858185
:101440009681BE010E94DF0DF801858196816EE4D0
:1014500040E00E947F0DF80185819681F70162814D
:1014600040E00E947F0DF80185819681F70163813C
:1014700040E00E947F0D8881803141F0F801858134
:101480009681F701648140E00E947F0DF80185811B
:1014900096810E94E50CF8018581968168E440817F
:1014A0000E947F0DF8018081882331F06AE070E0AE
:1014B00080E090E00E948E08F801858196810E946C
:1014C000E50CDF91CF911F910F91FF90EF90089560
:1014D0000F931F93CF93DF93EC018B018D819E813E
:1014E0000E94E50C8D819E81B8010E94DF0D8D81E7
:1014F0009E8164EB40E00E947F0D8D819E810E9461
:10150000540D082F8D819E810E94E50C81E0011110
:1015100080E0DF91CF911F910F910895EF92FF929C
:101520000F931F93CF93DF93CDB7DEB72A970FB6F4
:10153000F894DEBF0FBECDBF7C018B01242FAE011E
:101540004F5F5F4F2A870E94FF092A858823E1F0B9
:10155000F80180818031D1F02A3051F02A3050F0EA
:101560002B3021F02C3031F48FE705C08FE503C01C
:101570008FE301C08FE18D83C701B801AE014F5FDA
:101580005F4F0E94100A02C080E001C081E02A96ED
:101590000FB6F894DEBF0FBECDBFDF91CF911F9184
:1015A0000F91FF90EF900895CF93DF93CDB7DEB703
:1015B00029970FB6F894DEBF0FBECDBFFB01208187
:1015C0002031D9F0AE014F5F5F4F0E94FF098823A1
:1015D00081F08D818F3359F0803418F48F3149F4C4
:1015E0000CC08F3541F08F3721F48CE007C08AE0C2
:1015F00005C080E003C08BE001C089E029960FB6EA
:10160000F894DEBF0FBECDBFDF91CF910895EF926A
:10161000FF920F931F93CF93DF93CDB7DEB7619700
:101620000FB6F894DEBF0FBECDBF8C01FC018581E3
:1016300096810E94130EF8011482FF24F39437C0A0
:10164000C801BE016F5F7F4F0E949709882379F11F
:10165000F8018081882351F4C801BE016F5F7F4F7C
:101660000E94680A882311F0F801F082C801BE01C7
:101670006F5F7F4FAE01475F5F4F0E94A609F80181
:10168000E180C801BE016F5F7F4F0E94D40A8E15B2
:1016900018F4F801818106C0C801BE016F5F7F4F59
:1016A0000E94D40AF801818384818F5F8483F801CA
:1016B00085819681BE016F5F7F4F0E94440E882313
:1016C00009F0BECF61960FB6F894DEBF0FBECDBF56
:1016D000DF91CF911F910F91FF90EF900895CF93DD
:1016E000DF93CDB7DEB729970FB6F894DEBF0FBEF4
:1016F000CDBFAE014F5F5F4F0E94A60981E0998187
:10170000992309F480E029960FB6F894DEBF0FBE46
:10171000CDBFDF91CF910895CF92DF92EF92FF92EC
:101720000F931F93CF93DF93EC018B01411551056C
:1017300009F18B818823F1F088818823D9F40E94F4
:1017400052086B017C01CE0160E070E00E946F0BDB
:10175000882381F40E945208DC01CB018C199D0979
:10176000AE09BF098E3E22E0920720E0A20720E0EA
:10177000B20748F3F8018081893039F08930A0F050
:101780008A3041F08B3081F40AC06EE570E080E071
:1017900090E00EC06CEB70E080E090E009C067E77D
:1017A00071E080E090E004C06EEE72E080E090E0D6
:1017B0000E948E08DF91CF911F910F91FF90EF90C3
:1017C000DF90CF900895CF93DF93EC018D819E81C0
:1017D0000E94E50C8D819E810E940E0E8D819E815E
:1017E00064E448810E947F0D8A81882341F0BE0114
:1017F0006F5F7F4FCE0140E050E00E948C0BDF9185
:10180000CF9108958F929F92AF92BF92CF92DF9225
:10181000EF92FF921F93CF93DF93FB01EA0199812F
:1018200080E0688170E0682B792B8081823231F012
:10183000883221F0803109F079C047C08C818F3324
:1018400029F1803420F48F3109F070C02EC08F351B
:1018500071F08F3709F06AC0882777FD8095982F3F
:101860000E94912120E030E040E85DE30CC07595D6
:101870006795882777FD8095982F0E94912120E019
:1018800030E040E05EE30E94412250C075956795CC
:1018900075956795882777FD8095982F0E949121EF
:1018A00020E030E040E85EE3EECF93E07595679589
:1018B0009A95E1F7882777FD8095982F0E949121CE
:1018C00020E030E040E05FE3DECF1F817595679553
:1018D000882777FD8095982F0E94912120E030E0A5
:1018E00040E85EE30E948D204B015C01612F70E0B7
:1018F0008E81681B7109882777FD8095982F0E943B
:1019000091216B017C01612F70E080E090E00E94EA
:101910008F219B01AC01C701B6010E94F6209B01FB
:10192000AC01C501B4010E948E2000C0382F292FC0
:10193000862F972FA32FB22FBC01CD01DF91CF911E
:101940001F91FF90EF90DF90CF90BF90AF909F904E
:101950008F900895EF92FF920F931F93CF93DF9391
:10196000CDB7DEB729970FB6F894DEBF0FBECDBF57
:101970008C017B01AE014F5F5F4F0E94FF098823FE
:1019800041F0C801B701AE014F5F5F4F0E94020CEA
:1019900004C060E070E08EEF92EC382F292F862F84
:1019A000972FA32FB22FBC01CD0129960FB6F89423
:1019B000DEBF0FBECDBFDF91CF911F910F91FF9082
:1019C000EF900895FC0180810895FF920F931F937B
:1019D000CF93DF93FC011081C181D281F89489817A
:1019E000012F00958023898378948DE7F82EFA944F
:1019F00031F182E090E00E94B70888818123B9F339
:101A0000F8948A8180238A838981812B89837894C1
:101A100084EF91E00E94B708F8948981802389833C
:101A200080E590E00E94B70888818123C1E009F039
:101A3000C0E0789484EA91E00E94B70801C0C0E059
:101A40008C2FDF91CF911F910F91FF9008951F93DD
:101A5000CF93DF93FC011081C181D281912F9095AA
:101A6000F8948A8189238A838981812B898360FF05
:101A70000BC08AE090E00E94B7088A81812B8A839C
:101A8000789487E390E00AC081E490E00E94B70870
:101A90008A81812B8A83789485E090E00E94B70840
:101AA000DF91CF911F9108950F931F93CF93DF93F1
:101AB000FC011081C181D281F8948981812B8983B5
:101AC0008A81012F009580238A8383E090E00E9421
:101AD000B7088981802389838AE090E00E94B70853
:101AE000C881789485E390E00E94B7081C2381E0C8
:101AF00009F480E0DF91CF911F910F910895CF926B
:101B0000DF92EF92FF920F931F93CF93DF930F9289
:101B1000CDB7DEB78C01F62E28E0C22ED12CEE24F4
:101B2000E3948E2D8F2161E009F460E0C8014983C0
:101B30000E94270DEE0C0894C108D1084981C114F8
:101B4000D10479F74423A9F4F894D8011196ED91C2
:101B5000FC91129791818C918095892381831196B4
:101B6000ED91FC91129792818C91809589238283CB
:101B700078940F90DF91CF911F910F91FF90EF908C
:101B8000DF90CF900895EF92FF920F931F93CF9322
:101B9000DF938C01C8E0D0E0FF24EE24E394C80179
:101BA0000E94540D8111FE28EE0C2197C1F78F2D54
:101BB000DF91CF911F910F91FF90EF900895CF92F9
:101BC000DF92EF92FF920F931F93CF93DF930F92C9
:101BD000CDB7DEB77C01C62E65E540E079830E9473
:101BE0007F0D0C2D7981172FCC24DD24F801619114
:101BF0008F01C70140E00E947F0D0894C11CD11CD9
:101C0000F8E0CF16D10491F70F90DF91CF911F919B
:101C10000F91FF90EF90DF90CF9008956CEC40E033
:101C20000E947F0D0895FC01138615861486128686
:101C300011861086178216821582148213820895E7
:101C40001F93CF93DF93EC01162F862F60E00E9445
:101C50002C09612F70E0FB01E458FF4FE491E88309
:101C6000FB01E057FF4FE491F0E0EE0FFF1FEC5552
:101C7000FF4F8591949189839A83CE010E94130E20
:101C8000DF91CF911F910895BF92CF92DF92EF9293
:101C9000FF920F931F93CF93DF93EC016B018D8520
:101CA000882309F057C0CE010E94E50C882321F457
:101CB0001B861D861C865FC0CE0160EF40E00E943F
:101CC0007F0D01E0FF24EE2411E0CE010E94540DAF
:101CD000B82ECE010E94540D91E0B91619F481304E
:101CE000A9F430C0B816D1F48B85181738F4FE016A
:101CF000EF0DF11D8381802349F402C0181731F0E4
:101D000060E0193008F041C01C873FC0FE01EF0DB4
:101D1000F11D8381802B838361E009C06B2DFE015F
:101D2000EF0DF11D902F9095838189238383CE0140
:101D30000E94270D1F5F000F11F4F39401E087E06C
:101D40008F1518F6113430F0EB86EE2001F581E0A6
:101D50008D871DC01B861D861C8680E0D60120E075
:101D600030E0FE01E20FF31F93819D932F5F3F4F01
:101D700028303105B1F7DF91CF911F910F91FF907E
:101D8000EF90DF90CF90BF900895E12EC8CF8B8168
:101D9000882301F381E0E2CFDC0180E007C0ED9110
:101DA000E827F0E0EE53FF4F849161506623B9F7C6
:101DB0000895089522E634E0FC01318320830895DC
:101DC00022E634E0FC01318320830E940508089557
:101DD00022E634E0FC013183208308950F931F93A2
:101DE000CF93DF938C01462F61E00E94011088237E
:101DF000C1F0E8012C96CE01B80141E00E948C1898
:101E0000882339F4CE01B80140E00E948C18882361
:101E100041F0C8018A96BE010E94731291E08823A6
:101E200009F490E0892FDF91CF911F910F910895D0
:101E30001092790510927A0510927D0510927F0517
:101E400082E090E0A0E0B0E080938005909381056F
:101E5000A0938205B0938305109297051092A10577
:101E60001092A0058CE694E090939F0580939E05C8
:101E70001092A30508958EBD0DB407FEFDCF089501
:101E80008FEF0E943B0F8EB50895FC01848161E0C5
:101E90000E944D090895FC01848160E00E944D0973
:101EA0000895CF93DF93EC018E818823D1F08FEFDB
:101EB0008EBD4FEF04C00DB407FEFDCF4EBD8F8128
:101EC00098859C012F5F3F4F38872F8322E0813018
:101ED000920788F30DB407FEFDCFCE010E94450F97
:101EE0001E82DF91CF910895673028F026E1FC0132
:101EF000258380E00895962F8DB560FD02C0663081
:101F000011F48E7F01C081608DBD8CB58C7F8CBD3E
:101F10003CB592FF02C022E001C020E081E091FFC9
:101F200080E0832B822B8CBD81E008950F931F935B
:101F3000CF93DF93EB010E9452088B019C010E941A
:101F4000400F8F3F49F00E945208601B710B6C17C5
:101F50007D07A8F380E001C081E0DF91CF911F9160
:101F60000F9108958F929F92AF92BF92FF920F931D
:101F70001F93CF93DF938C01F62E49015A010E94E3
:101F8000510FC8010E944B0FC8016CE271E00E9422
:101F9000960F8F2D80640E943B0FC8E1D0E0D501E1
:101FA000C4010C2E04C0B695A795979587950A9401
:101FB000D2F70E943B0F28978FEFC83FD80779F7D9
:101FC000FF2029F0E8E0FE1621F08FEF03C085E93D
:101FD00001C087E80E943B0FC0E00E94400FF8015B
:101FE000828787FF04C0CF3F11F0CF5FF6CFDF912C
:101FF000CF911F910F91FF90BF90AF909F908F90C6
:102000000895AF92BF92CF92DF92EF92FF920F931B
:102010001F93CF93DF93EC01062F1B8619861E8238
:102020001D824C830E945208DC01CB015C018C8133
:1020300061E00E942C09CE010E94450F8CE060E017
:102040000E942C098BE061E00E942C098DE061E088
:102050000E942C098AE061E00E942C098AE061E07C
:102060000E944D0983E58CBD8DB58E7F8DBD1AE034
:102070008FEF0E943B0F1150D9F7CE010E944B0FFA
:102080000AC00E9452086A197B0987E0613D7807FF
:1020900010F081E05AC0CE0160E020E030E040E086
:1020A00050E00E94B20F182F8A87813051F7CE017D
:1020B00068E02AEA31E040E050E00E94B20F82FF7F
:1020C00002C01B870CC014E00E94400F8A87115089
:1020D000D9F78A3A11F082E038C082E08B878B858D
:1020E000823031F4C12CD12CE12C80E4F82E0EC0CA
:1020F000CC24DD2476010AC00E9452086A197B09AB
:1021000087E0613D780710F088E01FC0CE0167E3EB
:1021100020E030E040E050E00E94B20FCE0169E2E2
:10212000A70196010E94B20F8A87882329F78B8521
:102130008230F1F4CE016AE320E030E040E050E08C
:102140000E94B20F882339F086E08D83CE010E9471
:10215000450F80E014C00E94400F807C803C11F449
:1021600083E08B870E94400F0E94400F0E94400F27
:10217000CE010E94450FCE01602F0E94740FDF91A7
:10218000CF911F910F91FF90EF90DF90CF90BF9074
:10219000AF9008950F931F93CF93DF93EC010E94AC
:1021A00052088B019C010AC00E945208601B710BEF
:1021B00081E06D32780710F08FE008C00E94400F78
:1021C0008A878F3F89F38E3F39F08DE08D83CE0172
:1021D0000E94450F80E001C081E0DF91CF911F9107
:1021E0000F9108958F929F92AF92BF92CF92DF92FC
:1021F000EF92FF920F931F93CF93DF93EC014A016D
:102200005B0169010115110509F47EC0C801820F47
:10221000931F22E08130920708F071C08E818823DD
:1022200071F088819981AA81BB81481759076A0793
:102230007B0729F48F819885C816D90618F58882FE
:102240009982AA82BB828B85833039F079E0880C31
:10225000991CAA1CBB1C7A95D1F7CE0161E1A5019E
:1022600094010E94B20F882319F083E08D8347C048
:10227000CE010E94CA10882309F441C018861F822B
:1022800081E08E838FEF8EBD2FEF09C00DB407FE66
:10229000FDCF2EBD8F819885019698878F838F8182
:1022A00098858C159D0590F3980121503040F701D9
:1022B00080E090E04FEF07C00DB407FEFDCF5EB5A4
:1022C00051934EBD019682179307B0F30DB407FEEC
:1022D000FDCF8EB52E0D3F1DF90180838F8198852E
:1022E000800F911F98878F832985222321F0F2E0A8
:1022F00080309F0748F0CE010E94510F05C0CE01EB
:102300000E94450F80E001C081E0DF91CF911F91D5
:102310000F91FF90EF90DF90CF90BF90AF909F9084
:102320008F900895EF92FF920F931F93790120E011
:1023300030E000E012E00E94F2101F910F91FF9038
:10234000EF900895CF93DF93EC016EBDFA0180E02A
:1023500090E00DB407FEFDCF20812EBD0DB407FE29
:10236000FDCF21812EBD0296329622E08030920769
:1023700081F70DB407FEFDCF8FEF0E943B0F8FEF6B
:102380000E943B0F0E94400F8A878F71853039F081
:1023900081E18D83CE010E94450F80E001C081E084
:1023A000DF91CF910895CF92DF92EF92FF920F933A
:1023B0001F93CF93DF93EC016A017B0189014115E3
:1023C00051056105710511F482E133C08B858330BD
:1023D00039F0E9E0CC0CDD1CEE1CFF1CEA95D1F7CE
:1023E000CE0168E1A70196010E94B20F882311F087
:1023F00084E01FC0CE016EEFA8010E94A2118823C5
:10240000C9F0CE0168E572E00E94960F882311F4AE
:1024100085E10FC0CE016DE020E030E040E050E00B
:102420000E94B20F882321F40E94400F882379F084
:1024300084E18D83CE010E94450F80E0DF91CF9132
:102440001F910F91FF90EF90DF90CF900895CE01F4
:102450000E94450F81E0F2CFCF93DF93EC019C0106
:102460002A5F3F4F8B8D9C8D41E050E060E070E033
:102470000E9477178823A1F08F89988DA98DBA8D36
:102480000097A105B10571F48E819F81A885B9855A
:102490008F8B988FA98FBA8F8C8180688C8302C0B4
:1024A00080E001C081E0DF91CF910895CF93DF9369
:1024B000EC01462F8E859F85A889B989BC01CD0185
:1024C0000E94A115882351F08A8990E025E0880FA9
:1024D000991F2A95E1F78A539A4F02C080E090E055
:1024E000DF91CF9108950F931F93CF93DF93EC016A
:1024F0008B018D81882309F041C0FB0187898031E0
:10250000B1F482E08D831F8A188E198E1A8E808D09
:10251000918DA0E0B0E035E0880F991FAA1FBB1F86
:102520003A95D1F78B8B9C8BAD8BBE8B15C08032CF
:1025300029F583E08D83FB01428D538D648D758D6C
:102540004F8B588F698F7A8F9E012D5E3F4FC80148
:102550000E946216882391F01C8F0B8F81E08C8380
:102560001E821F82188619861A861B861C861D8667
:102570001E861F86188A198A1A8A01C080E0DF9198
:10258000CF911F910F9108958F929F92AF92BF921A
:10259000CF92DF92EF92FF920F931F93CF93DF932F
:1025A000EC014A015B012D81222309F475C08B895E
:1025B0009C89AD89BE8984179507A607B70708F4DB
:1025C0006BC078C081149104A104B10449F41E8247
:1025D0001F82188619861A861B861C861D865AC07D
:1025E0004A855B856C857D85EB8DFC8D258530E08E
:1025F000275F3F4FDB01CA010197A109B109022EF4
:1026000004C0B695A795979587950A94D2F775015A
:1026100064010894C108D108E108F10804C0F694E7
:10262000E794D794C7942A95D2F7C816D906EA0634
:10263000FB0628F0411551056105710549F48F89A4
:10264000988DA98DBA8D8E839F83A887B98716C070
:10265000C81AD90AEA0AFB0A11C04E815F8168854F
:1026600079858B8D9C8D98010E94DC150894C1089A
:10267000D108E108F108882321F40EC08E010A5F19
:102680001F4FC114D104E104F10439F78A869B86F7
:10269000AC86BD8681E001C080E0DF91CF911F91C3
:1026A0000F91FF90EF90DF90CF90BF90AF909F90F1
:1026B0008F900895223009F085CFE8CF0F931F93B4
:1026C000CF93DF938C01FC0185818823B1F1848154
:1026D00087FF30C0C80161E00E945612EC010097EC
:1026E00061F1F8018581823040F483899489A5895C
:1026F000B6898C8F9D8FAE8FBF8FF8018789908DA3
:10270000A18DB28D9B8F8A8FBD8BAC8BE091BD0567
:10271000F091BE05309751F0BE016A5E7F4FCE0149
:1027200048960995888D998D9B8B8A8BF8018481B9
:102730008F7784830E94631501C080E0DF91CF9181
:102740001F910F9108952F923F924F925F926F9237
:102750007F928F929F92BF92CF92DF92EF92FF92E1
:102760000F931F93CF93DF9300D000D000D0CDB74D
:10277000DEB78C01B62EC72E5E834D83DC01159625
:102780008C911597813009F067C114968C9114973C
:1027900081FF62C184C1F8014389548965897689C2
:1027A00082859385A485B58584179507A607B70705
:1027B00031F0C8010E94C412882309F44DC12D8054
:1027C0003E804B2C5C2C18C1F801238D348DF9010F
:1027D000B480BA94AC01BD01032E39E076956795BB
:1027E000579547953A95D1F7302DB4224FEF642E87
:1027F00041E0742E68227922BB2009F04EC061149A
:10280000710409F04AC0D80116964D915D916D9101
:102810007C911997411551056105710581F4579611
:102820008D919D910D90BC91A02D0097A105B105B2
:1028300049F1F80186839783A087B1872EC0C9012B
:102840009E012F5F3F4F0E94DC15882309F40BC1C6
:1028500049815A816B817C81D8015B96ED91FC9115
:102860005C978789803129F488EF9FEFA0E0B0E082
:1028700004C088EF9FEFAFEFBFE0481759076A0722
:102880007B0730F0C8010E942C12882331F4E4C089
:10289000F801468357836087718780E092E086194C
:1028A000970941018215930508F44C01D8015B9604
:1028B000ED91FC915C971696CD90DD90ED90FC909B
:1028C00019978EEF9FEFAFEFBFEFC80ED91EEA1E2C
:1028D000FB1E058404C0CC0CDD1CEE1CFF1C0A94FE
:1028E000D2F786859785A089B189C80ED91EEA1EC0
:1028F000FB1ECB0CD11CE11CF11C90E0891692E070
:10290000990651F58091370490913804A0913904CB
:10291000B0913A048C159D05AE05BF0561F48FEFAB
:102920009FEFAFEFBFEF8093370490933804A093ED
:102930003904B0933A048091C4059091C505B7015C
:10294000A60192010E94D311882309F485C0A0E05A
:10295000B2E04A0E5B1E3EC06114710409F5F80135
:1029600082859385A485B58543895489658976894F
:1029700084179507A607B70798F00E946315882368
:1029800009F46AC0C0923704D0923804E092390446
:10299000F0923A048091C30581608093C30508C01A
:1029A000C701B60141E00E94A115882309F454C073
:1029B00093012A533A4FC901880D991DD201F9019B
:1029C00002C04D914193E817F907D9F7E21BF30BC9
:1029D0004E0E5F1E28183908A40160E070E0F8016F
:1029E00082859385A485B585840F951FA61FB71F83
:1029F00082879387A487B587F80182859385A4850C
:102A0000B5852114310409F0DFCE438954896589E5
:102A10007689481759076A077B0740F4838B948BA4
:102A2000A58BB68B8481806884830DC08091BD05A1
:102A30009091BE05009739F08D819E81009719F025
:102A4000848180688483F801848183FF0EC0C8017B
:102A50000E945E13882349F481E090E0D801139628
:102A60009C938E9312971E821D828D819E81269645
:102A70000FB6F894DEBF0FBECDBFDF91CF911F918F
:102A80000F91FF90EF90DF90CF90BF909F908F902D
:102A90007F906F905F904F903F902F90089582FDB0
:102AA0007ACE8DCECF93DF930F92CDB7DEB7698309
:102AB000BE016F5F7F4F41E050E00E94A3130F9073
:102AC000DF91CF9108958091C3058823B1F14091A2
:102AD0003704509138046091390470913A04809120
:102AE000C4059091C50526EC35E00E94D3118823DA
:102AF00031F14091BF055091C0056091C1057091C1
:102B0000C205411551056105710591F08091C4051B
:102B10009091C50526EC35E00E94D311882359F029
:102B20001092BF051092C0051092C1051092C20507
:102B30001092C30502C080E0089581E0089580E00E
:102B40000895CF92DF92EF92FF92CF936B017C01B9
:102B5000C42F8091370490913804A0913904B0912A
:102B60003A048C159D05AE05BF05C1F00E946315A2
:102B70008823D9F08091C4059091C505B701A601BD
:102B800026EC35E00E949211882379F0C092370438
:102B9000D0923804E0923904F0923A048091C3054F
:102BA0008C2B8093C30581E001C080E0CF91FF9022
:102BB000EF90DF90CF900895AF92BF92CF92DF92C7
:102BC000EF92FF920F931F93CF93DF93EC016A0173
:102BD0007B01590189859A85AB85BC850196A11D2C
:102BE000B11D84179507A607B70708F45FC04B8986
:102BF0005C896D897E898F89803129F4BB27AF2D4F
:102C00009E2D8D2D09C0D701C60137E0B695A79539
:102C1000979587953A95D1F78C019D01040F151F63
:102C2000261F371FC901B8010091370410913804DD
:102C30002091390430913A04601771078207930795
:102C400029F040E00E94A115882381F18F8980310D
:102C500091F48FEF90E0A0E0B0E0C822D922EA2200
:102C6000FB22F601EE0FFF1FEA53FA4F808191819C
:102C7000A0E0B0E014C00FE710E020E030E0C02298
:102C8000D122E222F322F601EE0FFF1FEE0FFF1F0B
:102C9000EA53FA4F80819181A281B381BF70F5011F
:102CA00080839183A283B38381E001C080E0DF91C0
:102CB000CF911F910F91FF90EF90DF90CF90BF9039
:102CC000AF9008956F927F928F929F92AF92BF9232
:102CD000CF92DF92EF92FF920F931F93CF93DF93E8
:102CE00000D000D0CDB7DEB78C0149835A836B8307
:102CF0007C833901CC24DD247601812CF2E09F2EE7
:102D0000A12CB12C49815A816B817C81C8019E0123
:102D10002F5F3F4F0E94DC15882359F1D501C40174
:102D2000F801058404C0880F991FAA1FBB1F0A94CD
:102D3000D2F7C80ED91EEA1EFB1E49815A816B814B
:102D40007C818789803129F488EF9FEFA0E0B0E093
:102D500004C088EF9FEFAFEFBFE0481759076A073D
:102D60007B0780F2F301C082D182E282F38281E0AC
:102D700001C080E00F900F900F900F90DF91CF91E6
:102D80001F910F91FF90EF90DF90CF90BF90AF9089
:102D90009F908F907F906F9008954F925F926F9267
:102DA0007F928F929F92AF92BF92CF92DF92EF92DB
:102DB000FF920F931F93CF93DF93EC016A017B0186
:102DC00028013901423051056105710508F47DC0C3
:102DD00089859A85AB85BC850196A11DB11D841797
:102DE0009507A607B70708F470C04B895C896D8901
:102DF0007E898F89803129F4BB27AF2D9E2D8D2DA3
:102E000009C0D701C60127E0B695A7959795879584
:102E10002A95D1F74C015D01840E951EA61EB71EA2
:102E20008091370490913804A0913904B0913A040C
:102E300088169906AA06BB0641F0C501B40140E018
:102E40000E94A115882309F440C08F89803181F444
:102E50008FEF90E0A0E0B0E0C822D922EA22FB2266
:102E6000F601EE0FFF1FEA53FA4F5182408213C062
:102E70008FE790E0A0E0B0E0C822D922EA22FB224E
:102E8000F601EE0FFF1FEE0FFF1FEA53FA4F4082CD
:102E90005182628273828091C30581608093C305F1
:102EA0008A89823080F08D819E81AF81B885880DBE
:102EB000991DAA1DBB1D8093BF059093C005A093CB
:102EC000C105B093C20581E001C080E0DF91CF91E0
:102ED0001F910F91FF90EF90DF90CF90BF90AF9038
:102EE0009F908F907F906F905F904F9008952F925A
:102EF0003F924F925F926F927F928F929F92AF928A
:102F0000BF92CF92DF92EF92FF920F931F93CF93D6
:102F1000DF93CDB7DEB72F970FB6F894DEBF0FBEA5
:102F2000CDBF1C014C875D876E877F873B872A87D3
:102F3000D9014D905D906D907C9013974114510490
:102F40006104710431F00894411C511C611C711C16
:102F500010C0FC014080518062807380F1E0FD83ED
:102F60002C853D854E855F85213031054105510514
:102F700009F01D82D1011996CD90DD90ED90FC9065
:102F80001C970894C11CD11CE11CF11C5301420187
:102F90001E821F8218861986F10181859285A3857C
:102FA000B4852E813F8148855985281739074A07FE
:102FB0005B0708F095C0C814D904EA04FB0450F478
:102FC00042E0842E912CA12CB12C52E0452E512CA4
:102FD000612C712CC101B501A4019E012F5F3F4FEF
:102FE0000E94DC15882309F47BC049815A816B81DA
:102FF0007C81D501C4010196A11DB11D411551056A
:103000006105710519F02C013D010DC08419950968
:10301000A609B7092C853D854E855F8582179307E4
:10302000A407B50789F08E819F81A885B98501968F
:10303000A11DB11D8E839F83A887B9870894811C29
:10304000911CA11CB11CA8CFC101A401B5010FEFB7
:103050001FEF2FEF3FE00E94CD16882391F440C070
:10306000680179010894C108D108E108F108C1019B
:10307000B701A6010E94CD16882391F19701860120
:1030800002C095018401401651066206730640F3A2
:10309000AA85BB854D915D916D917C9113974115EA
:1030A00051056105710539F0C101930182010E944A
:1030B000CD168823A9F0EA85FB8540825182628281
:1030C0007382FD81FF2371F00894411C511C611C27
:1030D000711CD1014D925D926D927C92139702C04A
:1030E00080E001C081E02F960FB6F894DEBF0FBEDE
:1030F000CDBFDF91CF911F910F91FF90EF90DF90A7
:10310000CF90BF90AF909F908F907F906F905F9087
:103110004F903F902F9008956F927F928F929F9241
:10312000AF92BF92CF92DF92EF92FF921F93CF9315
:10313000DF93EC01142F7093C5056093C4054423FD
:1031400089F1453008F006C160E070E080E090E071
:1031500040E00E94A115882309F4FCC0E12FF0E0B3
:10316000A4E0EE0FFF1FAA95E1F7EC58F84F80811D
:1031700090E08F779070009709F0ECC0848595857A
:10318000A685B78584369105A105B10508F4E2C08E
:1031900080849184A284B38481149104A104B10435
:1031A00021F4D8C0882499245401C501B40140E019
:1031B0000E94A115882309F4CDC08091D10590917A
:1031C000D20522E08030920709F0C4C03091D605C4
:1031D000332309F4BFC08091D4059091D5050097A1
:1031E00009F4B8C02091D305222309F4B3C03A8B67
:1031F0002C831D8630E041E050E006C0812F8F5FB8
:103200008D87183008F0A6C01D85CA01012E02C0A6
:10321000880F991F0A94E2F72817390779F78091E8
:10322000DC059091DD05009719F0A0E0B0E008C042
:103230008091EA059091EB05A091EC05B091ED0528
:103240008D839E83AF83B887C090D405D090D50579
:10325000EE24FF24C80CD91CEA1CFB1CCB8ADC8A98
:10326000ED8AFE8A6090D7057090D805798E688EB9
:103270002091D60530E040E050E0BC01CD010E9435
:10328000A422DC01CB018C0D9D1DAE1DBF1D8A8FBC
:103290009B8FAC8FBD8FA301E5E0440F551FEA95CE
:1032A000E1F741505E4F452F5527469560E070E0AD
:1032B000480F591F6A1F7B1F4E875F87688B798B6A
:1032C0008091D9059091DA05009719F0A0E0B0E05F
:1032D00008C08091E6059091E705A091E805B091BE
:1032E000E905841A950AA60AB70A880E991EAA1E2D
:1032F000BB1E04C0B694A794979487941A95D2F7EE
:1033000089869A86AB86BC8685EF88168FE09806FC
:1033100080E0A80680E0B80610F48CE018C025EF25
:1033200082162FEF920620E0A20620E0B20610F4EB
:1033300080E10DC08091F2059091F305A091F40514
:10334000B091F5058A8F9B8FAC8FBD8F80E28F8BFC
:1033500081E001C080E0DF91CF911F91FF90EF905D
:10336000DF90CF90BF90AF909F908F907F906F90A5
:103370000895009711F00E9443068DE061E00E94DD
:103380002C098DE061E00E944D096AEF70E080E059
:1033900090E00E948E088DE060E00E944D096AEF87
:1033A00070E080E090E00E948E08EBCF0F931F93B7
:1033B000CF93DF93EC0184E794E0998388837B8348
:1033C0006A8388E090E00E940208FC011382128266
:1033D0001582148217821682118210829D838C833B
:1033E00088E090E00E940208FC011382128215829C
:1033F000148217821682118210829F838E8385E049
:1034000090E00E9402088C0161E041E020E00E940F
:10341000481C1987088785E090E00E9402088C010B
:1034200061E040E020E00E94481C1B870A8785E09D
:1034300090E00E9402088C0160E041E020E00E94E0
:10344000481C1D870C8785E090E00E9402088C01D3
:1034500060E040E020E00E94481C1F870E87DF915B
:10346000CF911F910F910895EF92FF920F931F93A9
:10347000CF93DF93EC018B01EE80FF8084E090E03E
:103480000E941223FC019F838E83009731F4888170
:1034900099816BE472E00E94B91913821282118340
:1034A00000838C819D81009719F4FD83EC8305C016
:1034B000D7011396FC93EE9312978A819B81019614
:1034C0009B838A83DF91CF911F910F91FF90EF90A3
:1034D0000895AF92BF92CF92DF92EF92FF920F9337
:1034E0001F93CF93DF938C017B016A01590188E020
:1034F00090E00E940208EC01B701A60195010E942C
:10350000A21CF80184819581FC012481358121155B
:10351000310519F4F80186819781BE010E94341AA1
:10352000DF91CF911F910F91FF90EF90DF90CF909F
:10353000BF90AF9008950F931F93FC01662341F055
:10354000442319F0608571850AC06285738507C0C0
:10355000442319F06485758502C066857785CF019F
:10356000A90198010E94691A1F910F910895EF9285
:10357000FF920F931F93CF93DF93EC01EC81FD81BA
:10358000309731F4888199816CE772E00E94B91913
:10359000E080F18002811381CF010E94A8231D8366
:1035A0000C832A813B81215030403B832A83C70111
:1035B000DF91CF911F910F91FF90EF900895EF92BF
:1035C000FF920F931F93CF93DF937C0184E794E0E6
:1035D000D70111969C938E9318968D919C91199773
:1035E000009739F0DC01ED91FC910280F381E02D30
:1035F0000995F70182859385009739F0DC01ED91FB
:10360000FC910280F381E02D0995F7018485958571
:10361000009739F0DC01ED91FC910280F381E02DFF
:103620000995F7018685978502C00E94B71A009711
:1036300039F0DC01ED91FC910280F381E02D0995D8
:10364000F70184819581DC0114962D913C911597A9
:103650002115310551F70CC0CE010E94B71A009711
:1036600039F0DC01ED91FC910280F381E02D0995A8
:10367000D7011696ED91FC91179784819581149648
:10368000CD91DC911597009739F72097C1F00C8107
:103690001D8109C08C819D81FC01028113810E94E2
:1036A000A8231D830C8301151105A1F71B821A8223
:1036B0001F821E8219821882CE010E940508D7013E
:1036C0001696CD91DC9117972097C1F00C811D8142
:1036D00009C08C819D81FC01028113810E94A82375
:1036E0001D830C8301151105A1F71B821A821F820D
:1036F0001E8219821882CE010E940508DF91CF91A7
:103700001F910F91FF90EF900895CF93DF93EC01FD
:103710000E94DF1ACE010E940508DF91CF91089523
:10372000CF92DF92EF92FF920F931F93CF93DF938D
:10373000FC0104811581D80114968D919C911597F7
:1037400036812781009721F07901CC24DD243AC00D
:10375000F02EE12E032F122FF8CFC8010E94B71AC6
:10376000EC018C819D81DC01ED91FC910190F08157
:10377000E02D0995882361F08E819F81DC01ED9118
:10378000FC910190F081E02D09950894C11CD11C99
:103790008C819D81DC01ED91FC910280F381E02D13
:1037A0000995882351F0209769F0E881F98102801A
:1037B000F381E02DCE01099505C08F2D9E2DBE0110
:1037C0000E94341AF80184819581009731F6C60170
:1037D000DF91CF911F910F91FF90EF90DF90CF90ED
:1037E0000895CF92DF92EF92FF920F931F93CF93A2
:1037F000DF93EC018A819B81009781F1DC01ED91DF
:10380000FC910190F081E02D0995CE010E94901B62
:10381000EC81FD81AE81BF814281538112962D9151
:103820003C911397420F531F662757FD6095762FE3
:10383000AA81BB818C01222717FD2095322FED91A3
:10384000FC9111976A017B01C01AD10AE20AF30ABE
:103850000280F381E02DCD01099503C0CE010E94C5
:10386000901BDF91CF911F910F91FF90EF90DF9010
:10387000CF9008952CE734E0FC0131832083089534
:103880002CE734E0FC01318320830E940508089571
:10389000FC018CE794E091838083628343832483DB
:1038A0000895FC0182810895FC0183810895FC0143
:1038B00084810895CF93DF93EC0184E894E09983A9
:1038C00088838A819B810E94541C882359F08E81B1
:1038D0009F81009739F0DC01ED91FC910480F58126
:1038E000E02D09958A819B810E94511C882359F003
:1038F0008C819D81009739F0DC01ED91FC9106806F
:10390000F781E02D09958A819B810E94571C8823AD
:1039100059F08A819B81009739F0DC01ED91FC918F
:103920000280F381E02D0995DF91CF910895CF9327
:10393000DF93EC010E945A1CCE010E940508DF9122
:10394000CF910895FC0184E894E091838083738390
:10395000628355834483378326830895FC018485DD
:103960000895EF92FF920F931F93CF93DF937C0103
:103970008CE894E0F70191838083C481D5812097FE
:10398000C1F00C811D8109C08C819D81FC010481E5
:1039900015810E94A8231D830C8301151105A1F731
:1039A0001B821A821F821E8219821882CE010E94F7
:1039B0000508F70187818823E1F0C281D381209730
:1039C000C1F00C811D8109C08C819D81FC010481A5
:1039D00015810E94A8231D830C8301151105A1F7F1
:1039E0001B821A821F821E8219821882CE010E94B7
:1039F0000508C7010E946320DF91CF911F910F91AD
:103A0000FF90EF900895CF93DF93EC010E94B11CDB
:103A1000CE010E940508DF91CF910895009711F023
:103A20000E9443068DE061E00E942C098DE061E078
:103A30000E944D096AEF70E080E090E00E948E08DD
:103A40008DE060E00E944D096AEF70E080E090E058
:103A50000E948E08EBCFEF92FF920F931F93CF93AC
:103A6000DF9300D0CDB7DEB77C018B012A83498379
:103A70000E9471208CE894E0D70111969C938E935C
:103A800013961C930E931297498116964C93169792
:103A90002A8117962C9388E090E00E940208FC018E
:103AA000138212821582148217821682118210826A
:103AB000D70115969C938E9314971C961C921C9775
:103AC000F70110861186128613860F900F90DF91F2
:103AD000CF911F910F91FF90EF900895CF92DF92B9
:103AE000EF92FF920F931F93CF93DF9300D0CDB748
:103AF000DEB76C01DC011496ED91FC9115973097BF
:103B000031F48D919C916EEA72E00E940E1D6081ED
:103B10007181F280E38004811581CF0169837A830A
:103B20000E94A823F6011583048382819381019763
:103B30009383828369817A818F2D9E2D0F900F90C0
:103B4000DF91CF911F910F91FF90EF90DF90CF9079
:103B50000895CF92DF92EF92FF920F931F93CF932E
:103B6000DF93EC010E945208AB01BC018885998566
:103B7000AA85BB85EA81FB81E480F580E114F1042C
:103B800031F48081918161E173E00E940E1D8A0110
:103B90009B01081B190B2A0B3B0BD701CD90DD9025
:103BA000ED90FC901397C016D106E206F30660F57F
:103BB000488759876A877B870C811D81CF010E94C6
:103BC0006E1DAB01BC01C8010E941401EA81FB819A
:103BD000848195810097D1F409C00A811B810E94DC
:103BE0006E1DAB01BC01C8010E9414018C819D8136
:103BF000FC01248135812115310579F78E818823D7
:103C000029F481E08C8703C080E001C081E0DF916E
:103C1000CF911F910F91FF90EF90DF90CF9008957B
:103C200028E934E0FC01318320830E947920089543
:103C3000CF93DF93EC0188E994E099838883CE01E8
:103C40000E947920CE010E940508DF91CF9108954E
:103C5000CF93DF93EC010E945208DC01CB018C87EB
:103C60009D87AE87BF87DF91CF910895CF93DF9374
:103C7000EC011C861D861E861F8618A219A21AA298
:103C80001BA21C8A1D8A1E8A1F8A188E198E1A8EE4
:103C90001B8E1C8E1D8E1E8E1F8E0E945208DC01F4
:103CA000CB0188879987AA87BB87DF91CF91089539
:103CB000CF92DF92EF92FF920F931F93CF93DF93F8
:103CC000EC018B0169017A010E94872088E994E068
:103CD000998388831B830A83CC82DD82EE82FF82F4
:103CE000CE010E94361EDF91CF911F910F91FF9060
:103CF000EF90DF90CF900895CF93DF93D82FC92F07
:103D00002AE030E00E94C5068D2F9C2FDF91CF91D5
:103D100008954F925F926F927F928F929F92AF928F
:103D2000BF92CF92DF92EF92FF920F931F93CF93A8
:103D3000DF938C012A013B01FC01C281D38120EA7F
:103D4000A22E24E0B22ECE01B5010E94160634E464
:103D5000832E33E0932ECE01B4010E944306F80176
:103D6000C281D381CE01B5010E941606CE016AE55B
:103D700073E00E9416060E94E703BC01CE014AE0F0
:103D800050E00E941507CE016BE673E00E94160614
:103D9000CE010E942F06F801C281D381CE01B50168
:103DA0000E941606CE016EE673E00E9416060E947F
:103DB0005208AB01BC01CE010E947C1E0E942F065E
:103DC000F801C281D381CE01B5010E941606CE0151
:103DD00068E773E00E941606F80144815581668108
:103DE0007781CE010E947C1E0E942F06F801C281BD
:103DF000D381CE01B5010E941606CE0168E973E0B9
:103E00000E941606F80140A151A162A173A1CE0142
:103E10000E947C1E0E942F06F801C281D381CE0130
:103E2000B5010E941606CE0160EA73E00E941606F4
:103E3000F8014089518962897389CE010E947C1EF4
:103E40000E942F06F80160A171A182A193A10E9496
:103E50008F216B017C01F8016089718982899389C6
:103E60000E948F219B01AC01C701B6010E94F62080
:103E7000F62EC72EE82ED92EF801C281D381CE01AD
:103E8000B5010E941606CE0169EB73E00E9416068A
:103E9000CE014F2D5C2D6E2D7D2D22E030E00E9455
:103EA000F207CE010E942F06F801C281D381CE0114
:103EB000B5010E941606CE016AED73E00E94160657
:103EC000F8014489558966897789CE010E947C1E54
:103ED0000E942F06F801C281D381CE01B5010E9454
:103EE0001606CE016BEE73E00E941606F801408DB7
:103EF000518D628D738DCE010E947C1E0E942F0613
:103F0000F801C281D381CE01B5010E941606CE010F
:103F10006DEF73E00E941606F801448D558D668D95
:103F2000778DCE010E947C1E0E942F06F801C2816F
:103F3000D381CE01B5010E941606CE0162E174E084
:103F40000E941606CE01B301A2010E947C1E0E94AF
:103F50002F06F801C281D381CE01B5010E94160659
:103F6000CE01B4010E944306DF91CF911F910F91C2
:103F7000FF90EF90DF90CF90BF90AF909F908F9089
:103F80007F906F905F904F9008952F923F924F9245
:103F90005F926F927F928F929F92AF92BF92CF92D9
:103FA000DF92EF92FF920F931F93CF93DF9300D096
:103FB000CDB7DEB71C012A013B0146015701FC01C8
:103FC000C0A0D1A0E2A0F3A029833A830E945208A6
:103FD000AB01BC01F10184859585A685B785C81A1A
:103FE000D90AEA0AFB0AC40ED51EE61EF71EC0A2B5
:103FF000D1A2E2A2F3A280899189A289B389019614
:10400000A11DB11D808B918BA28BB38B8489958967
:10401000A689B789840D951DA61DB71D848B958B28
:10402000A68BB78B808D918DA28DB38D29813A811E
:10403000800F911FA21FB31F808F918FA28FB38F0C
:10404000848D958DA68DB78D880D991DAA1DBB1DDC
:10405000848F958FA68FB78F0E945208DC01CB0109
:10406000F1014085518562857385841B950BA60BF4
:10407000B70B4481558166817781481759076A07D4
:104080007B0740F4C101B301A2010E94891EC10156
:104090000E94361E0F900F90DF91CF911F910F91CC
:1040A000FF90EF90DF90CF90BF90AF909F908F9058
:1040B0007F906F905F904F903F902F90089581E098
:1040C000089581E008952DEA34E0FC0131832083D6
:1040D00008952DEA34E0FC01318320830E94050815
:1040E00008952DEA34E0FC0131832083089508957A
:1040F000089529EB34E0FC0131832083089529EBF6
:1041000034E0FC01318320830E940508089529EBE7
:1041100034E0FC013183208308955058BB27AA273F
:104120000ED075C166D130F06BD120F031F49F3FD5
:1041300011F41EF45BC10EF4E095E7FB51C1E92FC9
:1041400077D180F3BA17620773078407950718F0D1
:1041500071F49EF58FC10EF4E0950B2EBA2FA02DB1
:104160000B01B90190010C01CA01A0011124FF2724
:10417000591B99F0593F50F4503E68F11A16F0401F
:10418000A22F232F342F4427585FF3CF469537951E
:104190002795A795F0405395C9F77EF41F16BA0BE3
:1041A000620B730B840BBAF09150A1F0FF0FBB1F91
:1041B000661F771F881FC2F70EC0BA0F621F731FDA
:1041C000841F48F4879577956795B795F7959E3F37
:1041D00008F0B3CF9395880F08F09927EE0F9795C5
:1041E00087950895D9D008F481E008950CD00FC1C7
:1041F00007D140F0FED030F021F45F3F19F0F0C05D
:10420000511139C1F3C014D198F39923C9F355233F
:10421000B1F3951B550BBB27AA27621773078407B9
:1042200038F09F5F5F4F220F331F441FAA1FA9F36F
:1042300033D00E2E3AF0E0E830D091505040E69561
:10424000001CCAF729D0FE2F27D0660F771F881FC2
:10425000BB1F261737074807AB07B0E809F0BB0BB1
:10426000802DBF01FF2793585F4F2AF09E3F5105D5
:1042700068F0B6C000C15F3FECF3983EDCF3869572
:1042800077956795B795F7959F5FC9F7880F911D4B
:104290009695879597F90895E1E0660F771F881F37
:1042A000BB1F621773078407BA0720F0621B730BEA
:1042B000840BBA0BEE1F88F7E095089504D068943C
:1042C000B111D9C00895BCD088F09F5790F0B92F94
:1042D0009927B751A0F0D1F0660F771F881F991F5B
:1042E0001AF0BA95C9F712C0B13081F0C3D0B1E06D
:1042F0000895C0C0672F782F8827B85F39F0B93F7D
:10430000CCF3869577956795B395D9F73EF490955C
:104310008095709561957F4F8F4F9F4F0895E894DA
:1043200009C097FB3EF490958095709561957F4FFD
:104330008F4F9F4F9923A9F0F92F96E9BB279395AB
:10434000F695879577956795B795F111F8CFFAF4BB
:10435000BB0F11F460FF1BC06F5F7F4F8F4F9F4FEC
:1043600016C0882311F096E911C0772321F09EE84A
:10437000872F762F05C0662371F096E8862F70E0B0
:1043800060E02AF09A95660F771F881FDAF7880F8A
:104390009695879597F90895990F0008550FAA0BE0
:1043A000E0E8FEEF16161706E807F907C0F0121648
:1043B0001306E407F50798F0621B730B840B950B4B
:1043C00039F40A2661F0232B242B252B21F40895A0
:1043D0000A2609F4A140A6958FEF811D811D08953D
:1043E00097F99F6780E870E060E008959FEF80ECA8
:1043F000089500240A94161617061806090608954B
:1044000000240A9412161306140605060895092EB0
:104410000394000C11F4882352F0BB0F40F4BF2B1F
:1044200011F460FF04C06F5F7F4F8F4F9F4F08955F
:1044300057FD9058440F551F59F05F3F71F0479555
:10444000880F97FB991F61F09F3F79F0879508953A
:10445000121613061406551FF2CF4695F1DF08C059
:10446000161617061806991FF1CF86957105610576
:1044700008940895E894BB2766277727CB0197F91E
:1044800008950BD0C4CFB5DF28F0BADF18F095231C
:1044900009F0A6CFABCF1124EECFCADFA0F3959FD2
:1044A000D1F3950F50E0551F629FF001729FBB271B
:1044B000F00DB11D639FAA27F00DB11DAA1F649FC7
:1044C0006627B00DA11D661F829F2227B00DA11D7A
:1044D000621F739FB00DA11D621F839FA00D611D00
:1044E000221F749F3327A00D611D231F849F600D21
:1044F000211D822F762F6A2F11249F5750408AF05A
:10450000E1F088234AF0EE0FFF1FBB1F661F771FE5
:10451000881F91505040A9F79E3F510570F060CF21
:10452000AACF5F3FECF3983EDCF3869577956795CD
:10453000B795F795E7959F5FC1F7FE2B880F911D03
:104540009695879597F90895629FD001739FF00122
:10455000829FE00DF11D649FE00DF11D929FF00D13
:10456000839FF00D749FF00D659FF00D9927729F4A
:10457000B00DE11DF91F639FB00DE11DF91FBD01D5
:10458000CF011124089597FB092E07260AD077FD45
:1045900004D02ED006D000201AF4709561957F4F7C
:1045A0000895F6F7909581959F4F0895A1E21A2EF0
:1045B000AA1BBB1BFD010DC0AA1FBB1FEE1FFF1FC7
:1045C000A217B307E407F50720F0A21BB30BE40B17
:1045D000F50B661F771F881F991F1A9469F760955E
:1045E0007095809590959B01AC01BD01CF01089518
:1045F000AA1BBB1B51E107C0AA1FBB1FA617B70709
:1046000010F0A61BB70B881F991F5A95A9F7809524
:104610009095BC01CD010895EE0FFF1F0590F49118
:10462000E02D0994CF93DF93AC018230910510F413
:1046300042E050E0E091C807F091C90720E030E087
:10464000A0E0B0E024C08081918184179507D0F06C
:104650008417950771F482819381109729F013963E
:104660009C938E9312972CC09093C9078093C80790
:1046700027C02115310519F08217930718F49C0102
:10468000BD01EF0192818381DF01E92FF82F30977F
:10469000D1F621153105F9F0C901841B950B843041
:1046A000910580F48A819B816115710521F0FB01E0
:1046B0009383828304C09093C9078093C807FE0147
:1046C000329642C0FE01E80FF91F419351930297C1
:1046D0009983888339C08091C6079091C707009756
:1046E00041F480913204909133049093C7078093F2
:1046F000C60720913004309131042115310541F471
:104700002DB73EB78091340490913504281B390BA6
:10471000E091C607F091C707E217F30798F42E1B44
:104720003F0B2417350770F0CA0102962817390786
:1047300048F08E0F9F1F9093C7078093C607419341
:10474000519302C0E0E0F0E0CF01DF91CF910895F6
:104750000F931F93CF93DF939C01009709F48CC0B4
:10476000DC01129713961C921E9212976091C80753
:104770007091C9076115710589F48D919C9111970C
:10478000820F931F2091C6073091C707281739075A
:1047900069F5B093C707A093C6076EC0FB0140E060
:1047A00050E001C0FC01EA17FB0730F482819381DD
:1047B000AF010097B9F71FC0E9012297FB83EA8395
:1047C00008811981C901800F911F8E179F0759F425
:1047D00080819181800F911F0296998388838281C5
:1047E00093819B838A834115510529F4B093C907AE
:1047F000A093C80741C0FA01B383A283C191D191AC
:10480000EC0FFD1FAE17BF0781F4F9019291829161
:104810008C0F9D1F0296DA0111969C938E938281D4
:10482000938113969C938E931297E0E0F0E002C080
:10483000FB01BC01DB0112968D919C9113970097AF
:10484000B9F7CB0102962D913C911197820F931FDE
:104850002091C6073091C7072817390769F43097A8
:1048600029F41092C9071092C80702C0138212825D
:104870007093C7076093C607DF91CF911F910F9187
:064880000895F894FFCF3B
:1048860051554555453A20696E7375666669636983
:10489600656E74206D656D6F727920746F2063721A
:1048A600656174652061206E6577206E6F64652E84
:1048B60000496E697469616C697A696E6720534450
:1048C600206361726420424547494E2E2E2E0050C9
:1048D600726F626C656D207768696C6520696E69B8
:1048E6007469616C697A696E67205344203A2800BE
:1048F600534420696E697469616C697A6564203A0B
:104906002900496E697469616C697A696E6720531A
:1049160044206361726420454E442E2E2E0073653A
:104926007475705344636172643A002D2D2D2D2DDC
:104936002D2D2D2D2D2D2D2D2D2D2D2D2D2D2D2DA1
:10494600005354415254006672656552616D4D655F
:104956006D6F727928293D006D696C6C6973282921
:104966003D00454E4400736574757028293A002051
:104976006F43004C6F636174696E67206465766986
:104986006365732E2E2E00466F756E6420002064BC
:104996006576696365732E0050617261736974652B
:1049A60020706F7765722069733A20004F4E004F72
:1049B6004646004465766963652030205265736F0C
:1049C6006C7574696F6E3A20002E00515545554539
:1049D6003A20696E73756666696369656E74206DE3
:1049E600656D6F727920746F2063726561746520DE
:1049F60061206E6577206E6F64652E0051554555B2
:104A0600453A2063616E277420706F702069746563
:104A16006D2066726F6D2071756575653A207175CA
:104A260065756520697320656D7074792E00515522
:104A36004555453A2063616E277420706F70206972
:104A460074656D2066726F6D2071756575653A20A7
:104A5600717565756520697320656D7074792E00B2
:104A660051554555453A20696E73756666696369A1
:104A7600656E74206D656D6F727920746F20637238
:104A8600656174652061206E6577206E6F64652EA2
:104A96000051554555453A2063616E27742070656F
:104AA600656B206974656D2066726F6D2071756522
:104AB60075653A20717565756520697320656D7039
:104AC60074792E002D2D2D2D2D2D2D2D2D2D2D2DA9
:104AD6002D2D2D2D2D2D2D2D2D00667265655261E6
:104AE6006D4D656D6F727928293D002042006D6914
:104AF6006C6C697328293D007374617469737469F9
:104B060063734372656174696F6E496E746572761C
:104B1600616C496E4D733D0074696D6553756D002A
:104B26006D61696E4C6F6F70457865637574696FFA
:104B36006E73436F756E743D0074696D6553756D64
:104B46002F6D61696E4C6F6F70457865637574691A
:104B56006F6E73436F756E743D00636865636B6556
:104B6600645461736B7353756D3D00657865637549
:104B76007465645461736B7353756D3D006E6F7429
:104B860045786563757465645461736B7353756DAD
:104B96003D007461736B732071756575656420697A
:104BA6006E207461736B206D616E616765723D0086
:104BB6000000CA07200001FFFFFFFF000000002BD6
:104BC6000313031B03445331384232303A000000CA
:104BD60000006504EE0503043004150452040000C9
:104BE6000000D90EDA0EE00E000000005215EE05A8
:104BF60000000000DF1A851B000000003A1C401C64
:104C0600000000005A1C971C00000000A91DAE1CE5
:104C1600B11C031D00000000281EC51F101E181E13
:104C2600544D20535441543A00000000005F206167
:104C36002063206920000000007720782079207FFB
:024C460020004C
:00000001FF
